:020000040800F2
:10000000780E00206D5E0008955D0008975D000881
:10001000995D00089B5D00089D5D000800000000E0
:100020000000000000000000000000009F5D0008CC
:10003000A15D000800000000A35D0008A55D0008A8
:100040009D5E0008A15E0008A55E0008A95E00088C
:10005000AD5E0008B15E0008B55E0008B95E00083C
:10006000BD5E0008C15E0008C55E0008C95E0008EC
:10007000CD5E0008D15E0008D55E0008D95E00089C
:10008000DD5E0008E15E0008E55E0008E95E00084C
:10009000ED5E0008F15E0008F55E0008F95E0008FC
:1000A000FD5E0008015F0008055F0008095F0008A9
:1000B0000D5F0008115F0008155F0008195F000858
:1000C0001D5F0008215F0008255F0008295F000808
:1000D0002D5F0008315F0008355F0008395F0008B8
:1000E0003D5F0008415F0008455F0008495F000868
:1000F0004D5F0008515F0008555F0008595F000818
:100100005D5F0008615F0008655F0008695F0008C7
:100110006D5F0008715F0008755F0008795F000877
:100120007D5F0008815F0008855F0008895F000827
:100130008D5F0008915F0008955F0008995F0008D7
:100140009D5F0008A15F0008A55F0008B35D00087F
:10015000A95F0008AD5F0008B15F0008B55F000847
:10016000B95F0008BD5F0008C15F0008C55F0008F7
:10017000C95F0008CD5F0008D15F000800000000E3
:10018000D55F0008D95F00082DE9F04F0FF2A41CDD
:10019000A1B0DCE90089CDE900892A9DDFF8109C37
:1001A000049100248DF843500D944FF0FF3882469F
:1001B00016461F460FE0B3462C461BF8011B049859
:1001C000D0470028049000F0A2800D98401C641EC7
:1001D0000D90F2D176193078252808D1002100221F
:1001E0000791089209910A920B910C920DE06A46D0
:1001F0004146304600F0F4FF050001D10D98A1E022
:10020000D9D50125E6E741F0010116F8010F2028B4
:10021000F9D023280CD02B2804D02D2805D0302845
:1002200009D076E041F00201EFE741F00401ECE78C
:1002300041F00801E9E741F01001E6E70F9209E01B
:100240000F98484505DA00EB800402EB4402303A8F
:100250000F92761C3278A2F130000A28F0D3307861
:100260002E2818BFCDF8388022D116F8010F2A2881
:1002700007D138683860761C50F8042B38600E922D
:1002800016E02D280CBF761C002000220E920AE0FA
:1002900040B90E9A4A4505DA02EB820403EB4403A7
:1002A000303B0E93761C3378A3F130020A2AEFD349
:1002B000ADF8401021A0317800F09CFF08B116F88D
:1002C000010B8DF842009DF84200682804D1307877
:1002D00068280AD1622105E06C2804BF30786C28B8
:1002E00003D171218DF84210761C12A806903A466F
:1002F00016F8013B02A9504600F064F838B912AA7A
:1003000002A9504600F0CAF900287FF564AF4046C4
:1003100018E02A2892D13A683A6052F8040B3A6001
:1003200000280F9003D540420F9041F00401761C45
:1003300095E700000000000000000000686A6C748F
:100340007A4C000021B0BDE8F08F622820D06828E8
:1003500011D06A2803D06C2827D0712825D10868CD
:10036000C01D20F007000860D0E9002308300860B5
:10037000194610467047002A0A680A60106803D0C0
:10038000121D0A6000B217E0121D0A6080B217E069
:10039000002A0A680A60106803D0121D0A6040B281
:1003A0000AE0121D0A60C0B20AE0002A0A680A6068
:1003B000106803D0121D0A60C1177047121D0A6031
:1003C000002170477CB50D4611461C462E69B4F1DC
:1003D000250200F051811C3A00F08680121F022A8B
:1003E00040F282800E3A00F00B81521F5AD0093A37
:1003F0007AD0921E16D0521E35D0521E022A73D9C0
:10040000121F30D0521F00F09A80521E4AD0521E46
:1004100000F0E480D21E00F00181921E42D0D21E74
:1004200040D02FE195F83A406C2C09D06869421C05
:100430006A610A680A6052F8043B0A6033542BE18F
:100440000A680A6052F8043B0A6000930022019295
:100450004FF0FF332B636A46294600F09AF90028D3
:1004600040F11A8105E195F83A000122FFF76DFF8E
:10047000C5E900010023994204DA6869411C6961F9
:100480002D220DE0288F810704D56869411C696120
:100490002B2205E0C00722D56869411C6961202232
:1004A00032541CE095F83A000022FFF74EFFC5E9F0
:1004B000000195F83800010711D5D5E90023002087
:1004C000834208BF82420AD044F02000782806D137
:1004D000686930213154401C421C6A613454214601
:1004E00068693044E86087E00868C01D20F00700B4
:1004F0000860D0E9002308300860C5E90023D5E989
:100500000001C80F04D06869411C69612D220DE00B
:10051000288F810704D56869411C69612B2205E099
:10052000C00704D56869411C69612022325468699A
:100530003044E8602146284600F03AFAACE005F184
:100540003A02507820B14FF0FF340FF6343074E0A7
:100550001078622808D0682824D06A2812D06C2825
:100560002ED071280ED02BE00A680A6052F8040BD6
:100570000A6020B94FF0FF340FF61C305DE0E96AE5
:10058000017089E00A680A6052F8040B0A6020B919
:100590004FF0FF340FF600304FE0EA6AD317C0E99E
:1005A000002379E00A680A6052F8040B0A6020B957
:1005B0004FF0FF340FF6E0203FE0E96A01806BE086
:1005C0000A680A6052F8040B0A6020B94FF0FF3441
:1005D0000FF6C42031E0E96A01605DE00A680A6054
:1005E00052F8040B0A60002120F0000221F0FF33D2
:1005F000C5E90023EE607821284600F02DF94BE094
:100600006C2285F83A200B680B6053F8042B0B60C2
:1006100052BB4FF0FF340FF6B4200EE095F83A20AD
:100620006C2AF0D00868086050F8044B0860EC6051
:100630003CB94FF0FF340FF6782000F003FE201A8B
:1006400076BD2E6B002E04D5204600F01BFE04461E
:1006500008E032460021204600F03EFE002814BF8C
:10066000041B3446AC6117E0294600F092F80028DC
:1006700012D54FF0FF3076BD6869411C69612522B3
:10068000325409E06969481C6861252272542100CE
:1006900002D0431C6B613454002076BD2DE9F0413B
:1006A0000E4605469046726B7069316AB46A121A3A
:1006B000B069521A716A121AF069521A121A96F82F
:1006C0003800141B41070DD4002C0BDD2746B06801
:1006D0002021A8470028B06057D0F06A401C7F1E38
:1006E000F062F4D1736942463146284600F0B0FC0E
:1006F00000284AD1376A002F0ADDB0683021A847A8
:100700000028B06041D0F06A401C7F1EF062F4D136
:10071000B369F2683146284600F09AFCA8BB776AB4
:10072000002F09DDB0683021A847B06068B3F06AD7
:10073000401C7F1EF062F5D1F068B169F369421880
:100740003146284600F084FCF8B9B76A002F09DD6D
:10075000B0683021A847B060B8B1F06A401C7F1E75
:10076000F062F5D196F8380041070BD5002C09DD71
:10077000B0682021A847B06038B1F06A401C641E00
:10078000F062F5D10020BDE8F0814FF0FF30BDE808
:10079000F0812DE9F8470D46A3B02F6B002F0646D8
:1007A000904648BF6FF000470FF63C1400F0C0FDC4
:1007B000D4E90023696B4018CDE90123812828BFC3
:1007C0004FF0FF3042D20024002F33DDD8F8001064
:1007D00001AA684600F006FD8146B9F1000F38D441
:1007E000D8F8000010B9B9F1010932D44F4521DB26
:1007F0006869484481280AD30021696303AA29460D
:100800003046FFF74BFF040014D40020686103ABAF
:10081000D5F814A04A46694603EB0A0000F08EFDA5
:10082000CA44C5F814A058F8040B002818BFA7EB59
:100830000907C9D14CB903AA29463046FFF72EFF54
:10084000044614B9002068616863204624B0BDE8FE
:10085000F0874FF0FF34F8E72DE9FC4707468C4658
:100860003E69BCF16F0F08BF082405D04CF0200092
:10087000782814BF0A2410243C25D7E90023BCF1B2
:10088000640F18BFBCF1690F9046994606D100214C
:100890008B4203DAD8F1000869EB49094FF0000AEE
:1008A000D14508BFD0451FD1386BE8B9082C4BD1D2
:1008B00097F83800010747D530203B2586F83B00E4
:1008C00042E000280ED597F8380000F014001028F8
:1008D00008D17B6B7969386A5B1A1B1A9A1A002A4D
:1008E000C8BF3A62BDE8F3878DF800C0404649466C
:1008F0002246E31700F076FD3032D0B26D1E3A2862
:10090000019504DB9DF80000A0F151018A18725591
:10091000404649462246E31700F064FD894680467A
:10092000D14508BFD04503D0F86871198842DDD39E
:10093000082C09D197F83800010705D5705D3028DB
:1009400002D06D1E30207055C5F13C02BA6171199C
:10095000F960386B8242B4DA821A3A624FF6EF706D
:10096000398F01403987BDE8F3872DE9D04306462A
:100970000F4614464FF00008DFF8389412E0E00705
:1009800007D542464B463046394600F043FE064600
:100990000F464046494642464B4600F03BFE641037
:1009A00080468946002CEAD130463946BDE8D083DE
:1009B0002DE9F34F054641F020048DB0D5E90089BB
:1009C000612C02AE09D0286B002848BF062003D452
:1009D00008BF672C01D101202863D5E90023580006
:1009E0004015401C0ED119030CD00320A8619DF8BE
:1009F000381061391A2902D20FF2F46111E00FF2B6
:100A0000F4610EE059004915491C0FD118030DD1AE
:100A10000320A8619DF8381061391A2914D30FF208
:100A2000DC61E868032200F089FCD3E1194621F07B
:100A30000043B3F5801F10460DD20027BB4208BF0C
:100A4000BA42019703D111E00FF2AC61E9E701AAC4
:100A500000F0B2FE0AE0DFF8607307EB1352DFF834
:100A60005C3301921940DFF858331943C5E900019E
:100A7000612C0ED1E86830210170821CEA609DF87B
:100A8000381061290CBF7821582141706869801C99
:100A90006861D5E900AB2BF0004300202AF000028A
:100AA000834204BF8242002300F05B81612C40F04E
:100AB000AA80286B002847BF21210091401C00908C
:100AC000009F7F1C404649460022002300F0ACFEF8
:100AD000D94601998DF8082038BF89F00049091FCF
:100AE000002FD04601910DF1090040F34981B3492F
:100AF000DFF8D0B20C91064640464946002200235A
:100B000000F0AAFE80F03B814800400D00F11C027D
:100B100011D0002A0FDD40F2FF70824205DB09F0A0
:100B2000004040EA0B01002013E00C98014041EA2C
:100B3000025140460DE029F00043002028F0000259
:100B4000834208BF82420FBF40461C22404600F04D
:100B50009BFE8046894600F035FFFF1F002F0446AC
:100B600009DD00F04DFF02460B464046494600F0C5
:100B700059FF80468946F01D072104E004F00F026A
:100B800000F8012D2411002C01DD491EF6D5491E67
:100B90005CBF002200F8012DF9D5ECE000201946D9
:100BA00002AA0A4400E05B1E12F80149491E844271
:100BB000F9D00F2804D10DF10900425C521C4254B7
:100BC000002904D50198001D02AE5B1C0190591E3E
:100BD00012D49DF838007218A0F13A07147804F185
:100BE00030085FFA88F43A2CA8BFB844491E02F8CE
:100BF0000189F3D58DF83800286B002840F1B080CA
:100C0000591E2963ACE0404649460022002300F00B
:100C10000BFE019938BF89F0004947F297504143D4
:100C2000694A91FBF2F20192D2F1070204DD4046DB
:100C30004946FFF79AFE0AE0524200206349FFF757
:100C400094FE02460B464046494600F05DFF804652
:100C5000662C286BDFF878B106BF019F0A3706279C
:100C60003F18142FC8BF142730208DF8080089467C
:100C70000DF1090000E03046002F34DD0646404605
:100C8000494601F065F801460A4606F108030420CA
:100C90000A26B2FBF6F606EB860EA2EB4E023032C7
:100CA00003F8012C0A22B6FBF2F202EB820EA6EB4D
:100CB0004E063036401E03F8026DE9D1083F002F82
:100CC00003F10806D7DD084601F056F802460B4648
:100CD0004046494600F0A6FE00225B4600F09AFC22
:100CE00080468946CBE70DF10901401A0DF109064E
:100CF00004E00199491E401E0191761C317830298B
:100D0000F7D0662C02D10199491C03E0652C0CBF79
:100D1000012100212B6BCB189842B8BF431E002B3A
:100D20001ED4834204DAF05C3528A8BF392000DAEB
:100D300030201946721E02EB010800E05B1E18F815
:100D40000199491E8145F9D0392802D1705C401CB7
:100D50007054002904D50198401C16465B1C019074
:100D6000019800B200901BB29DF838103246284618
:100D700000F034F82EE0C61D002F3FF7BDAE304620
:100D80000DF10901401A009903468842C8BF0B467D
:100D9000002B0DF109063FF52FAF8342BFF6FEAEE3
:100DA0000DF10900C15C07297FF7F8AE0F20F6E6C8
:100DB000CBCCCC0C0000244002FCFFFFFFFF0F80D7
:100DC0000000E03F0000F07FA08601000000F03F3F
:100DD00084D797410FB0BDE8F08F00002DE9F847A8
:100DE00083B006468A461746984600F0FDF9B8F1EA
:100DF000000F406A356B90F8009002DC4FF001085C
:100E0000BFA74AF02000BDF93040662808BF641C27
:100E100015D0672840F0848014F1040FC0F286805A
:100E2000AC4280F2838096F83800641C010702D43B
:100E3000A845B8BF454620B22D1A48BF00250FFA75
:100E400084FAF068B169BAF1000F25DC4A1C30233E
:100E50004354002D03DC96F83800010703D5F068F1
:100E600000F80290521C15EB0A0FB8BF6C4220B27A
:100E7000441941424445B8BFA046B26171620FFABD
:100E800088F5F561F068B3692A463946184400F0E0
:100E900055FA641BB462C4E022B29045084417DAE4
:100EA0004246394600F04AFAB0694044B061AAEBC4
:100EB0000801002D716203DC96F838100A0705D589
:100EC000F16801F80090F069401CF061B562A8E09B
:100ED000394600F033FAB069002D5044A8EB0408FD
:100EE00003DC96F838100A0703D5F16801F8009082
:100EF000401CB0610FFA88F08542F368B069B8BF52
:100F0000A8460FFA88F207EB0A01184400F016FA17
:100F1000B1690FFA88F00144B161281A706280E06B
:100F2000BAF1610F14D14FF0700A16E0A84504DA47
:100F300096F838100A0758BF45466D1E48BF002571
:100F4000BAF1670F14BF4FF0450A4FF0650A04E08D
:100F5000BAF1410F08BF4FF0500AB169F368481C5D
:100F6000B061002D17F8012B5A5403DC96F83810A5
:100F70000A071BD5F168431CB36101F80090002DEE
:100F800014DDA8F101080FFA88F039468542F768A8
:100F9000B8BFA8460FFA88F2F81800F0CFF9B06988
:100FA0000FFA88F108446D1AB0617562F068B16992
:100FB0000844002C80F800A003D42B224270811C2E
:100FC00003E02D2141706442811C00206A460AE042
:100FD00023460A2493FBF4F404EB8405A3EB4503B6
:100FE00002F8013B401C24B2002CF1DC012806DC95
:100FF0004AF02002652A04BF302201F8012B48B9CB
:10100000302001F8010B07E0401E1DF8003030339E
:1010100001F8013B0028F7DCF268B0691044091AB6
:10102000F16196F8380000F0140010280DD17269B3
:10103000B169706A8A18F1698218B06A8A188218D0
:10104000706B8242BCBF821A326204B0BDE8F08786
:10105000F8B505460E4617461C46002074B117F831
:10106000011BB068A847B06030B1F06A401CF06264
:101070000020641EF3D1F2BD4FF0FF30F2BD00003E
:101080007072696E74665F733A20256E20646973AE
:10109000616C6C6F776564007072696E74663A207B
:1010A00062616420256E20617267756D656E7400E3
:1010B0007072696E74665F733A2062616420257392
:1010C00020617267756D656E740000007072696EE4
:1010D00074665F733A2062616420256C73206172CC
:1010E00067756D656E740000000000000000000070
:1010F0006E616E004E414E00696E6600494E4600BC
:101100003000F0B40246106895681318506803EB7D
:101110005004C0071DD54D441BE013F8017B05F8B2
:10112000017B491EF9D1A0B1B60813F8011B06F0E6
:101130000306032E08BF13F8016B01EB0621494299
:10114000801C294405D011F8016B05F8016B401E85
:10115000F9D1A3420ED013F8016B16F0030104BFBE
:1011600013F8011BC91C30090F28DAD113F8010B41
:101170000F30D6E7F0BC02F10C0070471B487047F7
:1011800070B45368D418042B09DA41B1057804F817
:10119000015B10F8016B16B15B1C491EF3E753604D
:1011A00070BC704738B514461D4661B1FFF7E8FFC3
:1011B00061686A6B204690476FF00102811A02D085
:1011C000491E01D001E003E005E00021616032BD6D
:1011D0006FF0010032BD4FF0FF3032BDDA6B1047C7
:1011E000024BDFE7014BF9E7014870476800002038
:1011F000300000200278C9B28A421AB11CBF10F830
:10120000012FF9E718BF0020704730B4002513E024
:1012100050F8042BD30744BFA9F101039A18091F02
:10122000042942F8045BFAD213468C0744BF1580A8
:101230009B1CC90748BF1D7050F8041B0029E7D14B
:1012400030BC704780B500B906A005490B681BB1DA
:1012500022220021984701E000F09BFD222002BDE0
:101260006C0A0020636F6E73747261696E7420681B
:10127000616E646C65723A20626164206D6573739F
:101280006167650000F10103810704D010F8011BBC
:10129000820781B1FAD10268A2F10131914311F0C4
:1012A000803104BF50F8042FF6E709BAB1FA81F192
:1012B00000EBD100401CC01A7047B1F5807F02D30B
:1012C0004FF0FF3070470170012070470078401EDA
:1012D0008041C043C00F7047C9B2830706D0521E79
:1012E00022D310F8013B9942F7D11FE0083A13D3FB
:1012F00002F1040241EA012141EA014150F8043BB4
:10130000121F21BF4B40A3F1013C2CEA030C1CF03F
:10131000803FF3D0C9B2001F083210F8013B521EC3
:1013200028BF91EA030FF8D818BF0120401E70476C
:1013300080B5FFF723FF006C02BD000062B38B078E
:1013400008D0521E11F8013B00F8013B00F0248048
:101350008B07F6D1830740F0208000BF103A07D3F7
:1013600030B4B1E83810103AA0E83810F9D230BCE7
:10137000530724BFB1E80810A0E8081044BF51F893
:10138000043B40F8043BD20724BF31F8022B20F87D
:10139000022B44BF0B7803707047121F17D35B00FA
:1013A00009D151F8043B20F8023B1B0C121F20F816
:1013B000023BF6D20BE051F8043B00F8013B1B0A5C
:1013C00020F8023B1B0C121F00F8013BF3D238BF80
:1013D000121D521E24BF11F8013B00F8013BF8D842
:1013E00070470000BBBBE1B1B2F5803F80F07E806A
:1013F000022A1ED98C46B1FBF2F102FB11C31B0479
:1014000043EA1043B3FBF2FC02FB1C3380B240EA18
:101410000343B3FBF2F002FB103240EA0C4000231E
:101420007047022A05D98446B0FBF2F002FB10C2D5
:1014300070474AB105D100F0010249085FEA300067
:10144000704700220023704700F0A6BC0B0002008A
:10145000002100207047904271EB030CF6D3B3F5E6
:10146000803F2FD2F0B5B3FA83F7B1FA81F4A7F138
:101470000F0E3D1B5340CEF1200602FA0EF2F3414F
:101480005340B5F10F0746D80F3C2C444140C4F1FE
:101490002006A040F1414140B1FBF3F603FB1611D9
:1014A000A2FB0645001BA94102D2761E80185941B5
:1014B00080EA010221FA0EF362FA0EF200215A408C
:1014C0003046F0BD30B4B1FBF3FC03FB1C11A2FBB2
:1014D0000C45001BA94103D2ACF1010C8018594105
:1014E00030BC02460B46604600217047B2F1807F57
:1014F00065D3F0B5B2FA82F7B1FA81F4C7F10F06FD
:101500003D1B22FA06F307F1110EF24120355A4035
:10151000B5F10F07B8D94140C4F12006A040F14110
:101520004140B1FBF3FC03FB1C11A2FB0C45001B6B
:10153000A94103D2BCF1010C801859410F2F12D3DD
:101540000F3FC90341EA5041B1FBF3F603FB16110B
:10155000A2FB0645D4EBC030A94102D2761E80180A
:10156000594146EACC3C07B34140C7F12006B84098
:10157000F1414140B1FBF3F603FB1611A2FB064516
:10158000001BA94102D2761E8018594180EA01024F
:1015900021FA0EF3C7F1200462FA0EF20CFA07F0FA
:1015A0005A402CFA04F13043F0BD80EA010221FADE
:1015B0000EF3002162FA0EF260465A40F0BD8C46EE
:1015C000B1FBF2F102FB11C31B0243EA1063B3FB50
:1015D000F2FC02FB1C331B024CEA002043EA1063BE
:1015E000B3FBF2FC02FB1C331B024CEA002043EA73
:1015F0001063B3FBF2FC02FB1C331B024CEA00201D
:1016000043EA1063B3FBF2FC02FB1C324CEA0020FD
:1016100000237047B0B581EA030C0CF0004C40F297
:10162000FF7515EA11541DBF15EA1357AC42AF42BE
:1016300039E0E41923EA455343F48013C90241F029
:10164000004141EA505EC7021100A7FB02020028D8
:101650004FF00000EEFB01204FF00001E3FB0721FB
:1016600018BF42F00102401800214941E3FB0E017E
:10167000A4F580640F0302D252004041494154F165
:1016800001046CDD470872F1004250F1000051EB9B
:101690000451A1F580115CBF41EA0C01B0BD4CEAD8
:1016A00005510020B0BD05EA1357AC4214BFAF424C
:1016B00041E050EA410E1CBF52EA430E02E061468F
:1016C0000020B0BD24423C441BD15FEA070EF6D097
:1016D000090302BF01460020AEF1140EB1FA81F7F2
:1016E000AEEB070401FA07FE0C37C7F1200100FA40
:1016F00007F7C8404EEA000E23EA455343F480132F
:10170000A2E733F00043B3FA83F704BFB2FA82FED4
:1017100077440B3FE41BB7F1200E2FBF02FA0EF304
:10172000BB40C7F1200E22FA0EFE38BF43EA0E037B
:10173000BA40641C82E750EA410E14BF52EA430EDD
:101740006FF000014FF4001717EB430F8ABF1946E3
:1017500017EB410FB5E74CEA05510020B0BDD4F1BD
:101760000104B4F120070FDAC4F12007520828BFA2
:1017700042F0010210FA07F501FA07F7E1BF2A4328
:10178000E0403843E1400FE0352C98DCC7F12004FD
:1017900052EA400220FA07F218BF42F0010231FA81
:1017A00007F0A1400A43002172F1004250F100000D
:1017B00051EB0C01B0BD000010B5144600F002F86A
:1017C000226010BDC1F30A5343B14A0012F5001F55
:1017D00028D2A3F2FE32A1EB0251704750EA410C2D
:1017E00020D001F0004C31EA0C01B1FA81F204BFC3
:1017F000B0FA80F3D2180B3AB2F120032CBF00FAF2
:1018000003F1914041EA0C013EBFC2F1200C20FAE5
:101810000CF319439040524240F2FD33D21A01EBCF
:1018200003517047002270474FF4001C1CEB410F1E
:1018300094BF1CEB430F09E041EA030C50EA4C0C47
:1018400052EA0C0C03D2994208BF9042704714BF71
:101850008B428242704700004FF4001C1CEB410F8A
:1018600094BF1CEB430F09E041EA030C50EA4C0C17
:1018700052EA0C0C03D28B4208BF8242704714BF5D
:101880009942904270470000124254D440F2FF7CCB
:101890001CEA11530FD0634531D09B1863453CBF00
:1018A00001EB0251704701F0004141EA0C51002068
:1018B000AFF30080704750EA410320D001F0004CA4
:1018C00091EA0C011CD0B1FA81F30B3B9A420DD97D
:1018D000D21A994051EA0C01C3F1200C20FA0CFCF9
:1018E00061449840531C40F2FF7CD7E7914041EAA5
:1018F0000C01C2F1200C20FA0CF319439040704700
:10190000B0FA80F31533202BE0D3202AEED3203A0F
:10191000203B9A4209D9D21A00FA03F141EA0C019C
:101920000020531C40F2FF7CB8E700FA02F141EAC4
:101930000C0100207047524240F2FF7C1CEA115318
:101940000DD06345DBD0B2EB030C3CBFA1EB0251E1
:1019500070470CF1010221EA035141F4801150EA71
:10196000410CCCD001F0004C352A27DC30B481EAA0
:101970000C01B2F1200309DAC2F12003044601FA96
:1019800003F5D0402843D1409C400CE0C3F1200235
:10199000450020FA03F418BF44F0010421FA03F0D3
:1019A00091400C43002174F1004550F1000051EBCF
:1019B0000C01244230BC7FF47BAF704761460020AD
:1019C00076E70000C1F30A5340F2FE329B1A14DDA1
:1019D000D3F120034FEAE17208DDC90241EA505118
:1019E00041F00040D84080185040704703F2E13089
:1019F00010B1D24382F000407047002070470000D1
:101A0000C11768B14840401AB0FA80F29040D21C29
:101A1000C907C2F5846241EA025202EBD0214005B7
:101A20007047000070B44FF0004591EA030F40F199
:101A3000B5816B40841A71EB030603D2001BB141E0
:101A4000121973414FF4001C1CEB410F34BF7CEBA7
:101A5000430442E00C0DA4EB1356352E4FDC45EA4F
:101A6000C323DB0A45EAC121C912B6F120050DDD09
:101A700063FA05F6EB4086EA0305124218BF45F00B
:101A80000105C01851F100010CD213E062FA06F50D
:101A9000F2405540F3415A40B340F3405A40801859
:101AA000594107D349085FEA30005FEA350528BF8E
:101AB00045F0010501F58011420875F1004250F131
:101AC000000041EB04514E0016F5001F70BC38BFFA
:101AD00070470020090D090570471CEB410F10D21B
:101AE00052EA43060BD0BCEB410F05D80C0DAB43BB
:101AF000661E342EB6DD02E0AB438018594170BC3F
:101B0000704770BC70470000F0B540F2FF7581EA85
:101B1000030C0CF0004C15EA11541DBF15EA1357C5
:101B2000AC42AF42E5E0BC41C1F31301C3F3130380
:101B3000801A994143F4801304D2641E4000494145
:101B400080185941C90241EA5051B1FBF3F603FB39
:101B50001611A2FB0675D7EBC020A94102D2761E52
:101B600080185941C90241EA5051B1FBF3FE03FB11
:101B70001E11A2FB0E75D7EBC020A94103D2AEF116
:101B8000010E80185941890241EA9051760546EAD2
:101B90008E2EB1FBF3F603FB1611A2FB0675D7EBF5
:101BA0008020A94102D2761E80185941C90241EA1B
:101BB00050514EEA060EB1FBF3F603FB1611A2FBE1
:101BC0000675D7EBC020A94102D2761E8018594174
:101BD000C90241EA5051B1FBF3F703FB1711A2FB15
:101BE0000735D3EBC020A94167F100070CBF0042C5
:101BF00047F0010766F3D5274FEA1E31B80814F500
:101C0000806412DDBD0775F1004250EB0E5051EBC0
:101C1000045111F5801F5CBF41EA0C01F0BD4CF08E
:101C20007F6141F0E0410020F0BDBD076D0840EA52
:101C30000E5041F48011D4F10104B4F120060ADA07
:101C4000C4F120060200E04001FA06F3E140184327
:101C5000B24015430EE0342C13DCC6F1200445EAF3
:101C600040056D0820FA06F2154321FA06F0A1405E
:101C70000D43002175F1004250F1000051EB0C01C1
:101C8000F0BD00205FEA0C01F0BDCFB992185B41B6
:101C9000B3FA83F704BFB2FA82F6BF190B3FB7F16C
:101CA00020062FBF02FA06F3BB40C7F1200622FA36
:101CB00006F638BF3343BA401CB1E419641E33E75B
:101CC0007F4231F00041B1FA81F404BFB0FA80F6EE
:101CD000A4190B3CB4F120062FBF00FA06F1A14075
:101CE000C4F1200620FA06F638BF3143A0403C1B61
:101CF0001AE7AC421ABF05EA1357AF4212E050EAA6
:101D000041061CBF52EA4306BFE750EA410730468E
:101D100061461CBF41EA0551F0BD52EA430C08BFC1
:101D2000C143F0BD00204FF4001616EB410F98BFE1
:101D300016EB430F08BF16EB410F24BFC14305E06C
:101D400016EB430F0CBF61464CEA0551F0BD000095
:101D5000400D491840EA81200CD2490DA1F580615F
:101D6000491C40F0004005DBD1F11F0154BFC840C1
:101D7000C017704700207047014648B1B0FA80F1A3
:101D80008840C91CC1F58461090501EBD0214005DB
:101D90007047012000F0B8B870470000841A71EB5A
:101DA000030604D26E40001BB141121973414FF477
:101DB000001C1CEB410F34BF7CEB430683E00C0D91
:101DC000A4EB1356362E00F37C80012E45EAC32384
:101DD00041DC43EA525312BFD20292025B0824054F
:101DE00045EAC12141EA5051D2EBC020994125D4A6
:101DF00007D1B0FA80F610FA06F162D00020203642
:101E000008E0B1FA81F6B140C6F1200220FA02F2F0
:101E10001143B0404FEAF474B4EB465434F0010679
:101E20004FEA74040AD8D6F50016760D04F0004483
:101E3000F04061FA06F25040F1404840C00A40EAE2
:101E4000415021F0004128BF5FEA500550F10000E9
:101E500044EBD12135E0DB0A45EAC121C90AB6F1DC
:101E600020050EDD42EA0242120CC5F1200603FAFB
:101E700006F6EB4042EA06056D42984161F1000129
:101E80000DE062FA06F5F240554063FA06FC82EA7C
:101E90000C02F3405A406D42904161EB030111F492
:101EA000801F05D1641E620502D06D00404149418A
:101EB00021F48011430875F1004350F1000041EB1B
:101EC000045170BC70471CEB410F15D223F0004346
:101ED00052EA43060BD04FEA4C0CBCEB410F04D83E
:101EE0000C0D661E342EB7DDEBE7801A994150EADF
:101EF000410608BF0021E4E708BF1CEB430F28BFE1
:101F00006FF00001DDE7000080B5AFF30080024A0A
:101F100011001820ABBEFBE72600020010B504003C
:101F20008AB008BF01201ED0032084F89102204609
:101F300000F086FB206800F0F2FC83B000F015F89A
:101F40000EBC206800F0B0FC2068012100F0EDFC20
:101F500083B000F00AF80EBC206800F05EFD01209E
:101F600084F8910200200AB010BD211D6846342279
:101F7000FFF7F4B9FEB5064696F89002012801D1A4
:101F80000220FEBD0A98099C089D012786F89072E0
:101F90008E46282717FB0EFE06EB0E0702F07F0C7D
:101FA00007F8383F4FEAD21E38817970FC7187F804
:101FB00002C087F803E03D710290019400953068FB
:101FC00000F0F6FD002186F89012FEBD10B500F07D
:101FD000FAF801D1022010BD00F0FAF800F0EFFE8F
:101FE000EDE00000F8B50E46282466430644069D41
:101FF00006F13907002DBA70BB7107BF03247C724C
:1020000002247C72089C032B06F1440E23D8DFE8DF
:1020100003F002200C1C012D08BF002A1BD1220056
:1020200004D101228EF80D2000E052BB9EF80D2055
:10203000002A07BF00237B7202227A729EF81820C2
:10204000022A08D0099A3A7105E0D2B99EF80D200B
:10205000DAB900237B72079ACEF80020CEF804404C
:1020600000228EF81820CEF8082039708EF819203A
:1020700006F1380102690068BDE8F840D2B200F00C
:10208000F9BD9EF80C20002AE3D00223E2E7F8B560
:10209000044600262568284600F0A6FC01287CD1CD
:1020A00000F07CF8002878D000F078F8800203D5A2
:1020B00022684FF40011516100F070F8C00203D59E
:1020C00022684FF48011516100F068F8400103D597
:1020D00022684FF08061516100F060F8800702D5FE
:1020E00022680221516100F059F8800010D505F5F1
:1020F0008860016821F02E010160204600F0E1FABD
:102100002068012100F0F8FC21684FF00050486180
:1021100000F044F8C00144BF204600F039FA00F056
:102120003DF8000705D5204600F0C3FA21680820D5
:10213000486100F033F880011ED5206800F03AFEB7
:102140000746A068864213D227FA06F0C1070DD5CC
:1021500005EB461000F5A06001680804F1B22046C6
:1021600002D400F026F901E000F056F8761CE8E70A
:1021700021684FF00070486100F010F8C0060CD5DF
:102180002068816921F010018161204600F0CAF9C0
:102190002068816941F010018161F1BD206800F083
:1021A0001EBC10B500F00FF801D1022010BD00F0E8
:1021B0000FF800F0B0FB2068012100F0CBFC0020FC
:1021C00084F8900210BD044694F8900201287047EC
:1021D000012084F890022068704710B5FFF7F3FFE4
:1021E00001D1022010BDFFF7F3FF00F03FFEE6E74C
:1021F000006800F099BC28225143084490F85C0024
:102200007047282251430844C06C7047006800F0B2
:10221000CABC006800F0BDBC2DE9F0410546884607
:102220002C6804EB411404F5A06442462820A16800
:102230004243AE18480706F1480704D50421A160BF
:1022400000F0A3F81EE0A068810648BF202018D443
:10225000A06801070AD500F098F8052179751020CB
:10226000A0600822A26000F099F80BE0A068410588
:1022700008D500F08FF81020A060082179754FF480
:102280008060A060A068810504D500F083F84FF459
:10229000007061E0A068C10729D5286928B13968B4
:1022A0002069C0F31200091A7960012000217875B5
:1022B0003961A06096F83F00002818BF022804D1B9
:1022C00000F068F81020A0600CE003280AD1206814
:1022D00040F0005020600121397501224146284616
:1022E00000F0F3F9387A80F0010038724BE0A06812
:1022F000810724D5E06820F00200E060787D0128A5
:1023000014BF0528387511D0062818BF08280DD12C
:102310003869411C0428396104D300200421386144
:10232000397501E00220387500F03CF80220A06009
:1023300041463A7D2846BDE8F04100F0C6B9A068A4
:1023400001060BD500F021F8062138697975401C8B
:10235000386100F023F88020A06014E0A068C10676
:1023600011D596F83F00032801D100F013F803209F
:1023700078751021A16096F83F00002818BF022848
:1023800001D100F00FF8BDE8F081E06840F00200F4
:10239000E0607047E06840F00200E0604146286875
:1023A00000F00DBD206820F0804040F0004020602B
:1023B000704770B5046804EB411404F5A064A2688A
:1023C000530706D50420A060E16841F00201E160F6
:1023D00070BD0B4628225343C21802F15805A3686A
:1023E0003D329E060BD52023A3601278012A05D129
:1023F00004236B7100F08FF80221297170BDA3686E
:102400005E0607D504226A7100232B6000F083F872
:10241000402006E0A3689E0505D500F07CF84FF447
:102420000070A06070BDA368DE0706D500F06CF8F0
:1024300000F075F80120A0602CE0A3681E0709D504
:102440000822A260E36843F00203E36000F067F84B
:1024500005201FE0A368DE0607D500F055F800F060
:102460005EF803206871102107E0A3681E0606D5F8
:1024700000F051F8062068718021A16070BDA3684A
:102480005E0509D500F047F81020A0604FF4806188
:10249000A1600820687170BDA3689E0733D5E3680A
:1024A00023F00203E3606B79012B08D12B7196783E
:1024B000022E21D1137D83F0010313751CE0032B41
:1024C00018D0042B04D102232B710026167013E0C0
:1024D000052B08BF05220ED0062B18BF082B0BD1E9
:1024E0002A68531C042A2B6004D3002204232A6088
:1024F0002B7101E002222A710223A3602A79BDE830
:10250000704000F0E2B870BD00222A60E36843F03A
:102510000203E3607047E26842F00202E260006892
:1025200000F04DBCF8B50368196A01F00F06C1F35D
:102530000A14C1F3434102291D4624D11CB32821AA
:1025400011FB06F14718796CE9B12246184600F0F4
:102550002EFA786CF96C204405EB46157864641803
:1025600005F5A065FC642869084908420BD0286875
:1025700020F0804040F00040286097F8500080F044
:10258000010087F85000F1BD000000000000F81FB6
:102590007CB5054629680E4606F5886422680192D6
:1025A00023680093009820F02E0000900198820785
:1025B0000DD50198C20706D58B6923F000538B61B6
:1025C000284600F07AF8009840F002000090019848
:1025D00001072AD5009840F00800009001984107B3
:1025E0001AD5A86902280BD12868019901F4C021E5
:1025F000B1F5802F0CBF0221012100F07DFA07E028
:10260000E868032804D106F580664EF66021716003
:10261000284600F052F808E0206820F02E002060E4
:102620002868816941F0005181610198810603D5D4
:10263000009840F0200000900098206073BD0000DA
:102640000068B0F1A04F00D0704710B586B04FF4CD
:102650000071019100220292039201A9304C2046A0
:1026600000F042FC4FF4E05201920221002203925A
:10267000049202910A22059201A9204600F034FC3E
:102680002848016841F08001016000220092016940
:1026900041F4804101610021006900F48040009014
:1026A0000098432000F026FD432000F040FD06B0D6
:1026B00010BDD0F8940200F011BFD0F8940200F0E1
:1026C0001BBFD0F8940200F02ABF70470000000042
:1026D00038B5044604F56F70017801291ED1124DFA
:1026E000C5F8944245604FF0A04028600821A960D9
:1026F0000020032228610221E861EA60A9612846DE
:10270000FFF70CFC18B1E22152A001F039F928467C
:10271000FFF77CFD0146204600F0DDFE002032BDC3
:1027200000000240343802407005002010B5D0F897
:10273000C003FFF736FD002418B102280CBF0124A6
:102740000224204610BD10B5D0F8C003FFF745FDA8
:10275000002418B102280CBF01240224204610BD19
:1027600010B5D0F8C003FFF754FD012418B10228BA
:1027700008BF022400E00024204610BD10B5D0F8A8
:10278000C003FFF735FD002418B102280CBF012457
:102790000224204610BDD0F8C003FFF732BDFEB5BD
:1027A000089E099D0A9C0294019500960027D0F886
:1027B000C003FFF7DFFB18B102280CBF0127022777
:1027C0003846FEBD10B5D0F8C003FFF7FFFB00246C
:1027D00018B102280CBF01240224204610BDF8B510
:1027E00084B00A9EDDF82CC00C9D0D9C03940295CC
:1027F000CDF804C000960027D0F8C003FFF7F2FB25
:1028000018B102280CBF01270227384605B0F0BDD9
:10281000D0F8C003FFF7EFBC80B590F8BC030128E7
:1028200004BF084601F0CEF8C82001F0D5F800201A
:1028300002BDD0F8C00328235943014411F83B0FCF
:10284000002814BF4A758A750020704701F0C4B88B
:10285000000000004C3A5C446F63756D656E7473E4
:102860005C4769744875625C53544D33324634306A
:10287000372D46616D696C696172697A6174696F3F
:102880006E5C54656D70657261747572652D53650B
:102890006E73696E675C5372635C757362685F63C5
:1028A0006F6E662E630000000EB418B504460898DB
:1028B000012817D1A06B20F48030A063E168DFF815
:1028C00034020140E160E16821F44011E1600F98B9
:1028D000012803D1E06840F48010E060204600F059
:1028E00087F809E0E06840F04000E060204600F032
:1028F0007FF84FF48030A0630698012807D1A068C4
:1029000040F00600A060A06840F02000A060002019
:1029100012BC5DF810FB816841F0010102E08168A2
:102920004908490081600020704780B5C26822F0E4
:10293000C0420129C26003D1C16841F0005103E0E7
:1029400019B9C16841F08041C160322000F043B83C
:10295000890141F020010161DFF8E814491E04D02B
:1029600002699306FAD400207047032070471021B3
:102970000161DFF8D014491E04D00269D306FAD4ED
:102980000020704703207047B8B5059C002564B946
:10299000DB1C07E000EB023751F8044B07F58057CA
:1029A0006D1C3C60B5EB930FF4D30020B2BD30B585
:1029B0000023D21C00F5805403E0256841F8045B35
:1029C0005B1CB3EB920FF8D3084630BD01600020CA
:1029D00070474160032000F0FFFF002002BD014668
:1029E0004869896908407047406900F001007047F4
:1029F000DFF850241146491E0DD00369002BFAD58B
:102A0000016941F001010161521E04D00169CB0747
:102A1000FAD400207047032070470EB45CB504461A
:102A200004F5606100200860A26B22F48022A2639A
:102A3000A06B20F40020A063A06B40F40010A06302
:102A400004F580600799032907D1B4F1A04F04D0A1
:102A5000016841F00401016003E0026822F0040211
:102A6000026010212046FFF773FF2046FFF77FFF2B
:102A700000204FF0FF36002206E004EB401101F584
:102A8000A061401C8E60CA6006998842F5D301217E
:102A9000204600F05FF8C82000F09EFF0020A061F3
:102AA000B4F1A04F66610CD1DFF8A003DFF8A023DA
:102AB000802101604260DFF89C13DFF89C0308600E
:102AC00009E04FF400726262DFF89003DFF89013C0
:102AD000A062C4F80011089818B9A06940F010006D
:102AE000A061A169DFF87C030143A161002056BC0D
:102AF0005DF810FBBFFFBDFF10B500F5806001F071
:102B000003040268920892000260036823430129CB
:102B1000036008BF4BF6803103D0022902D141F295
:102B200070714160002010BD1CB500F588642068FC
:102B300000900A20009921F02E010091009941F4A3
:102B40008071216000F048FF009820F480702060C0
:102B5000002016BD00F5886081B002680092009BDD
:102B600023F02E030093009AD30407D4012905D142
:102B7000009941F480510160009807E0009AD30465
:102B800004D519B9009921F480510160002001B0E9
:102B9000704700F5886081B0006800900098C0F32D
:102BA000414001B0704700F58060806880B2704796
:102BB000F8B500EB4116079C06F5A0664FF0FF350F
:102BC000032CB56025D8DFE804F0021B021240F2A6
:102BD0009D45F560150603D5F56845F4807517E049
:102BE000B0F1A04F15D0F56845F0600510E040F257
:102BF0009D65F56015060CD5F56845F4807507E010
:102C000040F22525F560150603D5F56845F4C07535
:102C1000F560069D00F580674FF0010ED7F818C0EB
:102C20000EFA01F141EA0C01B961816941F00071CC
:102C30008161D109022D0CBF012500259B05D2021F
:102C400003F0FE5302F4F0421A43089842EAC132FC
:102C5000A10442EA454201F440210A43C0F30A00BC
:102C60000243032C326003D1306840F000503060E2
:102C70000020F2BDF8B5B0F1A04F17D00B79ABB979
:102C8000130006D14B79012B10D1497800F0CEF812
:102C900082E0012A0AD14B7800EB431303F5A063CD
:102CA000DD6825F06005DD6000234B710B697BB1A9
:102CB0000D892E46F3185B1EB3FBF6F6B6B240F252
:102CC00001139E4205DB2D024FF480760D6100E07A
:102CD0000126CB7813B10B8973430B614B785A4FA4
:102CE00000EB43150B69C3F3120307EAC6478E7A5C
:102CF000760705F5A0653B4306F0C04633432B61DC
:102D0000130006D04B7800EB431505F5A065CB68A2
:102D10006B6100F580639D6800F040F805F00105E7
:102D2000376827F00057376085F0010500F036F866
:102D3000376847EA457737604D7800EB451404F56E
:102D4000A064256825F0804545F00045256004BF56
:102D5000CA78002A20D10A69F2B1CC79032C13D8A1
:102D6000DFE804F0020A020AC36A00F01DF80BD281
:102D7000826942F0200206E01B6900F015F803D2D8
:102D8000826942F080628261002200924A780B6977
:102D9000C9689BB2FFF7F8FD0020F2BD4E7800EB4A
:102DA000461606F5A0667047D21C9BB29203B3EBA1
:102DB000124F704700F58060406980B2704702464C
:102DC00010B502EB411303F5A06340F2E930196836
:102DD000C1F3814100291EBF1968C1F38141022955
:102DE00007D1196841F080411960D26A12F47F0F4F
:102DF00007E0196841F08041196002F5806421699B
:102E00000A040DD1196821F0004119601A6842F0D6
:102E100000421A60401E07D019680029FAD403E066
:102E2000186840F000401860002010BD00EB411011
:102E300000F5A0600C490161016821F0804141F07A
:102E40000041C3E5410D03000000F81F24000050BD
:102E50008000600000010050E0004000000200011E
:102E60000003E000080020A30000088070B50446BD
:102E70001021A26852085200A2600025FFF768FDE9
:102E80002046FFF774FD002004EB401202F5A0621B
:102E9000401C136823F0802343F080431028136004
:102EA000F2DB002004EB401202F5A062136823F469
:102EB000004343F04043136040F2E9336D1C9D42F0
:102EC00002D21668002EF9D4401C1028EADB04F563
:102ED00080614FF0FF3048616061A06840F0010000
:102EE000A060002070BD00002DE9F84702460B46A7
:102EF000002468480F2101271D68A74007EA05083C
:102F0000B84540F0BD805D68022D18BF122D4FEA14
:102F1000840911D1E50802EB850C09F01C05DCF8E9
:102F200020E0D3F810A001FA05F62EEA06060AFA08
:102F300005F53543CCF820504FEA440C03261568BC
:102F400006FA0CF66FEA060E1E7906F003060EEA84
:102F5000050506FA0CF6354315605D68012D18BFAE
:102F6000022D03D0112D18BF122D10D19568DE68E7
:102F70000EEA050506FA0CF635439560556825EA14
:102F800007075D68C5F30015A5402F435760D76854
:102F90000EEA07059F6807FA0CF63543D5605D68B1
:102FA000EF006DD50025009509F00C0907683A4E31
:102FB00047F48047076001FA09FE056805F480457B
:102FC0000095009FA70856F8275025EA0E0E334DAE
:102FD000AA4208BF002522D0314DAA4208BF0125D0
:102FE0001DD0304DAA4208BF022518D02E4DAA424E
:102FF00008BF032513D02D4DAA4208BF04250ED0CB
:103000002B4DAA4208BF052509D02A4DAA4208BF68
:10301000062504D0284DAA420CBF0725082505FA2D
:1030200009F545EA0E0546F827506FEA0807234ED2
:10303000356807EA050C5D68ED0348BF48EA0C0CEB
:10304000C6F800C0756807EA050C5D68AD0348BFA7
:1030500048EA0C0CC6F804C0B56807EA050C5D68C0
:10306000ED0248BF48EA0C0CC6F808C0F56807EA4C
:10307000050C5F68BD0248BF48EA0C0CC6F80CC0DE
:10308000641C0F2C7FF637AFBDE8F18702B9090445
:103090008161704744380240083801400000024016
:1030A0000004024000080240000C024000100240F0
:1030B0000014024000180240001C0240003C014085
:1030C0000901020006D52F4A00F00F00104400F855
:1030D000041C70472C4B195470472C4B19684FF641
:1030E000FF020002114000F4E06008432849084351
:1030F0001860704738B5254B1C68C4F30223C3F130
:103100000704052C28BF04241D1D072D34BF0023F0
:10311000DB1E012505FA04F4641E2140994005FADE
:1031200003F35B1E1A401143BDE83440C8E7012297
:1031300000F01F01174BFFE78A40400943F82020A9
:10314000704710B5401EB0F1807F01D3012010BD43
:10315000114C60600F214FF0FF30FFF7B1FF0021ED
:10316000A16007202060002010BD04280A4904D176
:10317000086840F00400086070470A6822F0040202
:103180000A60704718ED00E000E400E00CED00E09C
:103190000000FA0500E100E010E000E000F000B8F7
:1031A0007047000070B504000D4601D1022070BDCB
:1031B00004F56F7604F55D703270002101604160A6
:1031C000204600F008F8280018BFB5602046FFF739
:1031D0007FFA002070BD10B504463C2104F55F70F5
:1031E00000F00EFC4FF4007104F58E7000F008FC46
:1031F0000020207001226070A270C4F8B80322760B
:103200004020A071002104F5477061760022012161
:1032100002704170002010BD10B50346002051B16E
:10322000D3F878233AB9012403EB8202C3F8784338
:10323000C2F8701310BD022010BD10B5024602F294
:103240001F320020D47DA14201D2117010BD022096
:1032500010BDF0B5002465B21A2615FB06F505442D
:1032600005F54F756F798F4218BFFF2909D1AE79E7
:10327000964218BFFF2A04D1ED799D4218BFFF2B5B
:1032800005D0641C65B2022DE5DBFF20F0BDE0B285
:10329000F0BD10B50446FFF749FA01212046FFF7BB
:1032A000BBFA002010BD00007FB502218DF8001090
:1032B000044604F5477521780A2904F55C7612D88E
:1032C000DFE801F0068C12838C3B6F474E557E0081
:1032D000A878002807D001212170C820FFF7B6FA8E
:1032E0002046FFF74BFA79E06420FFF7AFFA20465B
:1032F000FFF736FA6870002105202070204600F0A4
:1033000093FB60718021204600F08EFB0146A0797E
:10331000217100220290019280226B780093204656
:103320002B7800F070FB00F0D0F86A7800922B78D0
:103330006179002200F067FB50E000F053F80028AC
:103340004CD1697DE870012908BF082036D00721DB
:1033500031E0726D002A41D00121904708202DE014
:10336000E97E00F001FC002838D1092123E0B06893
:10337000002833D000217160316894F84123087926
:1033800090420CD1716051B1896820468847A0B93C
:10339000062020700321726D204690471EE00C210C
:1033A00009E0716849B1096988478DF800009DF806
:1033B000000098B90A21217010E00C2020700DE067
:1033C000716859B14969884708E0FFF704FF7168DF
:1033D00021B1C9682046884700207060002004B0F1
:1033E00070BD00007FB50125044604F5477663787B
:1033F000072B04F58E7265D8DFE803F004131A3B3F
:103400004147515D082100F037FB00285AD1F07A7E
:10341000A07165700290002001907178009133785E
:1034200018E0122100F028FB00284BD102203DE0DB
:10343000012100F08EFB002844D10220FFF706FA9C
:1034400035700321A0796170029000210191012360
:103450007278009280222179204600F0D4FA00F0A0
:1034600034F87278009233786179002200F0CBFA58
:1034700028E0092100F016FB20BB042016E0318B68
:1034800000F010FBF0B9052010E0B17C29B1FF235A
:1034900000F01EFBB0B9062008E0062109E0F17C2F
:1034A00031B1FF2300F014FB60B90720607009E020
:1034B0000721617006E0317D19B1FF2300F008FBA0
:1034C00000B90025284604B070BDA0790290002103
:1034D000019120467047C0F8B813704700F55D7140
:1034E0004A6C521C4A6403780A2B04D109680029EB
:1034F0001CBF89690847704780B5017841B901222E
:1035000080F81E23D0F8C4233AB10421904704E088
:103510000278012A04BF02210170002002BD10B50B
:103520000446FFF710F900F013F8617900F011F884
:10353000002084F81E03D4F8C42312B105212046CC
:1035400090472046FFF7F2F803202070002010BDBE
:103550002179204600F084BA38B584B000F08AFCA6
:1035600000F0CFF800F02FF9DFF8AC43DFF8AC0340
:10357000DFF8AC13A065E1650020206600214FF460
:103580008040A0666166E16621676167A16704F11A
:10359000580000F089FC00B1FEE704F1AC00DFF850
:1035A00084130160002282600021DFF87C23C16067
:1035B0004FF4007542618161C1610162456005613E
:1035C00000F0E4FC00B1FEE74FF48271616000227C
:1035D000D64820600A21A260E26022616261E26155
:1035E00022626262A262E162A561204600F008FEEA
:1035F00000B1FEE700F046FECD4CCE4820604FF40F
:103600008031CD48A06200220120E06160616160EC
:10361000A2602261A2612262E262E260226320462D
:1036200000F05AFE00B1FEE7102001210090019148
:10363000002202926946204600F044FF00B1FEE7F6
:1036400000F038F80446BD4D012200F027F821466D
:10365000CCA001F05BF816E000F025F800224FF452
:10366000004100F01DF8012209E0A042F4DA00F068
:103670001AF801224FF4004100F012F8002200F085
:103680000DF800F010FE00F015F88442EDDA01228A
:103690004FF4804100F004F80022EBE74FF4805132
:1036A0002846FFF7F3BC00224FF480412846FFF77D
:1036B000EDBC000038B50025642400F00DF8451974
:1036C000641EFAD1642095FBF0F42146B4A001F009
:1036D0001DF8204632BD000038B5954D284600F053
:1036E00023FE9749284600F049FE002420B92846C9
:1036F00000F0E5FE044602E0ADA001F007F8A0B23C
:1037000032BD80B596B0002000904FF480338D48D4
:10371000016841F0805101600021006800F0805094
:103720000090009888480091026842F4804202604C
:103730000122006800F4804000900AA800990A92D3
:1037400002214FF480021091119208214FF4A872C7
:1037500012911392022107220B931491159200F0FB
:10376000E9FF00B1FEE702210691002207920F2037
:103770004FF4A051059008914FF480520992052111
:1037800005A801F053F900B1FEE701200190C02126
:1037900002220291039201A801F018FA00B1FEE79B
:1037A00001F0C9F94FF47A71B0FBF1F0FFF7C9FCF1
:1037B0000420FFF7DAFC002200214FF0FF30FFF772
:1037C00099FC17B000BD2DE9F04186B000200590AE
:1037D0004FF210055D485E4C01685E4F574EDFF8B2
:1037E000788141F010010160026802F01002059238
:1037F000002205990592036843F004030360016801
:1038000001F0040100F0AEF843F0800303600168AA
:1038100001F0800100F0A6F843F0010303600168A5
:1038200001F0010100F09EF843F00203036001681B
:1038300001F002010591059905920821036843F002
:1038400008030360006800F0080005902046059B0F
:10385000FFF71CFC012201213846FFF717FC00226C
:1038600029463046FFF712FC082100910122002171
:1038700002910391019269462046FFF735FB012131
:1038800000910191384600210291039100F06FF8F8
:103890000022029203920820022100F06BF83846C1
:1038A000FFF722FB012000210090029169462B4F77
:1038B0002B480197FFF718FB04200021009001918D
:1038C0000291404600F053F800224FF4806002213C
:1038D0000292039200F04EF84046FFF705FB0120EC
:1038E0000190002202920392009569463046FFF74C
:1038F000FBFA20200021009001910291304600F057
:1039000036F802210091019700210291204600F033
:103910002EF806B0BDE8F0810808002000540040F1
:10392000A0860100003C004000770100003001400B
:103930001C0A0020002001400100000F000C024082
:1039400040420F00403802400070004030380240D2
:103950000010024000080240000402400000121063
:103960000000024005910599059203687047694679
:10397000FFF7BABA00900191052204926946704798
:10398000FEE7000044657465726D696E656420250C
:103990006920617320426173656C696E650A00007D
:1039A000417665726167652069733A2025690A006E
:1039B000436F6E76657273696F6E204572726F72B7
:1039C0000A000000421E9241D20F01210148FFF778
:1039D0005DBB00BF0008024038B5044601F0B0F9F5
:1039E00014F1010F054602D004480178641801F073
:1039F000A7F9401BA042FAD331BD00BF0000002050
:103A0000002201F0A3B97FB5089E099D0A9C02948B
:103A100001950096FEF7C3FE002004B070BD80B58E
:103A2000FEF7D0FE002002BD30B50246002002F5B0
:103A30005F73C4B253F824502C0406D5401CC3B2A3
:103A40000B2BF4DB4FF6FF7008E0C0B24FF6FF72AD
:103A500090421CBF41F4004143F82010C0B230BD79
:103A60000B2907DA00EB8100D0F87C13C1F30E01BB
:103A7000C0F87C1300207047F8B504460D4604F5E5
:103A80008E76009533464FF48072002100F046F8A0
:103A9000070005D12A46314604F5487000F07CF84D
:103AA0003846F2BD7CB504460D46009504F11C0372
:103AB0004FF40072002100F031F8060006D12A46CA
:103AC00004F11C0104F2323000F092F8304676BD69
:103AD000F8B50446154600931E4604F58E7741F46A
:103AE00040723B46002100F019F8010004BF7978CC
:103AF000032912D139788B1E9E42A4BF8E1EB6B206
:103B0000002106E06218891C92F81E2105F8012B9D
:103B100089B2B142F6DB00212970F2BD38B5857853
:103B20001446049A012D10D141F0800101744482A1
:103B30000621417404F47F44B4F5407F07BF40F28E
:103B40000941818200248482C2821946BDE838403E
:103B5000C2E08278012A06D1002305220374427450
:103B600041828382C38209E08278012A06D1002340
:103B700009220374427441828382C382002200219D
:103B8000AAE08278012A06D102230374427400233A
:103B900043828182C382F1E730B50B780370082A33
:103BA0004C7844708B78CC7803EB042545800B79F6
:103BB00003714C7944718B798371CC79C47116DDB2
:103BC0000A7A4B7A02EB032404818A7ACB7A02EBDD
:103BD000032444810A7B4B7B02EB032484818A7B90
:103BE0008273CB7BC3730A7C0274497C417430BD01
:103BF0002DE9FC41044608460025017821700A2A77
:103C0000437863708178C37801EB03216180017987
:103C10002171437963718179A171C379E371017A6B
:103C2000217250DB0921ADF80010BDF80010628848
:103C3000914248D2694600F048F841780429F4D10D
:103C40001A2212FB05F204EB020808F10A070178B8
:103C50003970002642787A708178B970C278FA702B
:103C60000179397142797A718179B971C279FA71C0
:103C7000017A39721AE0694600F027F8417805297F
:103C800014D171B208EBC10202F1140103780B7078
:103C9000761C42784A7083788B70C278CA70037938
:103CA000427903EB02228A8082798A7171B23A7971
:103CB000914204DABDF8001062889142DBD36D1C9A
:103CC0006DB2022DB1DBBDE8F3810A880378D31809
:103CD0000B8001780844704710B504460120A37892
:103CE000012B02D0022B06D010BDA281A1600222BE
:103CF0002076A27010BD204600F00CF8010004D11F
:103D000001210022A170227610BD022804BF0121EA
:103D1000A17010BD7CB50125044604F56E76207EA9
:103D2000401E0A280FD8DFE800F0060F242E384383
:103D30005761707C8C00627904F11001204601F01B
:103D40001EF8022222768FE000F090F8012873D14D
:103D5000217CE08A01F0800128B1802908BF03207E
:103D60006DD005215BE0802908BF092067D00721BD
:103D700055E031682379A289E1812046A16801F0EC
:103D80000FF804205BE0217900F071F8012808BFEA
:103D9000092054D005284FD135E000956379A289D8
:103DA000A168204600F0F6FF3068E081062136E089
:103DB00000F05CF8012808BF072040D0052802D198
:103DC0000C2020761FE0022808BF052037D00428E9
:103DD0004AD10B20207646E023790022002120469C
:103DE00000F0DEFF3068E081082118E0217900F062
:103DF0003EF8012803D10D202076002534E0042868
:103E00001CD0052830D103252EE0009500226379CF
:103E10000021204600F0BEFF3068E0810A212176B3
:103E200022E000F023F8012802D100250D2006E051
:103E3000022808BF092002D0042815D10B202076C3
:103E400012E0607E401C6076C0B2022805DC20468D
:103E5000FEF779FC2576A57006E0F268062120467B
:103E60009047002060760225284676BD617920467D
:103E7000FEF7CEBC80B50B48016841F400710160CB
:103E8000026842F480620260016841F4807101605E
:103E90000320FFF722F9002000F0B2FF00F0D0FF6E
:103EA000002002BD003C024070B5040001D1012099
:103EB00070BD04F13C05687820B9002129702046C6
:103EC00001F018F800F051F800F038FE01462368C0
:103ED000DFF8B000B1FBF0F25A606068DFF8A8309C
:103EE000984206D34FF4967042434FF47A76B2FB71
:103EF000F6F22068521C026262689A4208D25200AE
:103F0000B1FBF2F0C0F30B01042913D2042011E03D
:103F1000A06820B902EB4202B1FBF2F005E01920E3
:103F20004243B1FBF2F040F4804001050CBF012098
:103F300040F400402168C861E269206A21680243B8
:103F40000A60E0682269216802438A60A0696269A8
:103F500021680243CA602021206800F00EF800208A
:103F6000686069702063A87070BD24206870206844
:103F700001684908490001607047026842F0010287
:103F80000260704740420F00A18601002DE9F8430E
:103F9000044602261027002C4FF000094ED084F86A
:103FA00041600FF25D11DFF84451616300F0C6FF1C
:103FB0002068C1692940C161226816622168D1F870
:103FC0001C80606902282FD0E06800B12027A0681B
:103FD000202898BF7F00012000F07CFE0146206968
:103FE0000A22B0F5007F0ED16369E06820B1BF00FE
:103FF000B1FBF7F14A4303E0FF00B1FBF7F04243A6
:10400000B2FBF3F005E0B1FBF7F042436069B2FBAD
:10401000F0F0401D0A21B0FBF1F606F00100361A5F
:10402000F603360C4FEA0029B01EFE2808D3606C58
:1040300040F010006064204600F0DEFF012052E0F6
:104040002069216849EA060606430E626268A06894
:10405000E1680243A0690A43024342F40062216816
:1040600092B242EA0800C861206A012835D1DFF81F
:104070008010DFF88060DFF88020DFF88030616337
:104080002068B0420CBF1846104601680D4005601C
:104090002568B5420CBF181D101D0221016027685C
:1040A000B7420CBF18461046D0F800C06068E168FF
:1040B000B0F5007F16BF00284FF480750025A0687A
:1040C0000543A0690D43054345F40065B742ADB211
:1040D00008BF1A4645EA0C051560002161640120FD
:1040E00084F841000020BDE8F283000040F0FFFFAB
:1040F000B9540008003800401C4000401C34004007
:104100003EB5044620688168009194F84120042A55
:1041100037D10099CA074FF69F7516D541684A06F0
:1041200013D5E16A8A1CE262C0680880618E4A1E6B
:104130006286608E48B9206841682940416001224A
:1041400084F84120204600F058FF0098410618D519
:10415000206841688A0614D541680D4045600020FA
:1041600001902168CA680192896801910121019832
:1041700084F84110606C40F002006064204600F05A
:104180003BFF94F84100032838D1009881074FF68F
:104190005F7517D5206841680A0613D5616A8A1CC5
:1041A00062620988C160608D411E6185608D48B979
:1041B0002068416829404160012084F84100204680
:1041C00000F01CFF0098010718D5206841688A0696
:1041D00014D541680D404560002000902168886832
:1041E00000900120009984F841002046616C41F064
:1041F00004016164BDE83E4000F0FEBE37BD000032
:1042000038B5040001D1012032BD0020A06204F1C4
:104210005005687820B900212970204600F0B5FECD
:104220000220687000F027F86268A168E0682368DF
:104230000A432169024360690A43A169024301F408
:104240000071E0690A43216A0243A06A0A430243FB
:104250001A60A169606A2268090C01F00401014337
:1042600051602068C16921F40061C161002068606B
:104270000121697032BD2068016821F040010160B0
:104280007047000010B5114C0FF2210101222046A9
:10429000FEF788FF0E492046FEF7BEFF2046BDE828
:1042A0001040FEF7F6BF0948FEF7FEBF0229094895
:1042B00005D0042906D0052906D1032103E00222F6
:1042C000027070470121017070470000A8010020B2
:1042D00010000020740A002070B5044600250CB9B7
:1042E000012070BD04F13C06706820B9B5603070E3
:1042F000204600F0ECFD7068C10610D4706820F410
:10430000885040F002007060204600F075F9B560FA
:10431000716821F0020141F00101716000E00125A6
:1043200000203070284670BD38B500F0A1F801D1EA
:10433000022032BD00F0A4F81ED500F07AF846BF86
:10434000906820F00600002000F06CF800F084F87F
:1043500006D1816811F0405F0ED100F05EF80BE0ED
:10436000DFF88C13884202BFDFF88803026812F07E
:10437000405F01D100F077F8002032BDF8B50C465F
:10438000064606F13C05306881684A050AD5806812
:10439000C10507D5686840F02000686000212970D9
:1043A0000120F2BD00F0CCFC0746306801688A07A6
:1043B00010D414F1010FF8D024B100F0C1FCC01BDF
:1043C0008442F2D2686840F00400686000212970DD
:1043D0000320F2BD6FF012020260686840F40070C2
:1043E00068603168886810F0405F04BFB0690028D9
:1043F00011D1C86A10F4700F02D0886841050AD440
:10440000686820F4807068606868C10403D46868D4
:1044100040F0010068600020F2BD816841F08041F9
:10442000816070479060002414706FF02200186063
:1044300070475568DFF8C002054045F48075556047
:104440005868440505D5506820F4005040F4805069
:1044500050605068C40470470868DFF8A0120A680A
:1044600012F01F0F7047016841F0804101607047F2
:104470000146002001F13C0200901378012B7047A7
:104480000120107008688368DC0714D48368DFF8A3
:10449000704243F001038360DFF868020368B3FBF6
:1044A000F4F404EB4404009402E00098401E0090F1
:1044B00000980028F9D10B689868C4077047006815
:1044C000C06C704778B502460020009092F83C30EE
:1044D000012B01D1022072BD012082F83C0007248B
:1044E0000B6810680A2B11D30A3BC56803EB430322
:1044F00000F076F8C460C3680D688C68A5F10A0600
:1045000006EB4606B4402343C3600FE0056903EBA6
:10451000430304FA03F325EA0303036103690D6807
:104520008C6805EB4505AC40234303611F244B68B1
:10453000072B0CD25B1E456B00F050F84463436BB5
:104540004D680C886E1E00F044F843631BE00D2B91
:104550000CD2DB1F056B00F041F80463036B4D6860
:104560000C88EE1F00F035F803630CE00D3BC56AC4
:1045700000F034F8C462C36A4D680C88A5F10D06DA
:1045800000F027F8C3625A4B98421DD10C685B4873
:10459000122C03D1036843F4800303600B68102BD3
:1045A00018BF112B10D1036843F40003036008689F
:1045B000102809D15349524C0B68B3FBF4F40A207C
:1045C0004443009400F010F8002182F83C100020D1
:1045D00072BD06EB8606B4402343704703EB8303AA
:1045E0009C4025EA0404704702E00098401E0090B9
:1045F00000980028F9D17047404A116821F44031F1
:104600001160136841680B4313600268536823F418
:10461000807353605168036941EA03215160516816
:1046200021F040715160536881680B435360936877
:1046300023F4006393609368C1680B43936032492D
:10464000836A8B4210D0936823F070639360936801
:10465000816A0B439360936823F04053936093689F
:10466000C16A0B43936007E0916821F0706191602B
:10467000916821F040519160916821F002019160B0
:104680009168836941EA43019160016A0029516898
:104690000CD041F400615160516821F460415160D7
:1046A0005168436A5B1E41EA433101E021F4006135
:1046B0005160D16A21F47001D162D16AC3695B1E75
:1046C00041EA0351D162916821F4007191609168CF
:1046D000036B41EA43219160916821F4806191600C
:1046E0009168406941EA80219160704700000000B4
:1046F0000020014008200140FEF9FFFF0423014093
:1047000040420F000C0000200100000F0EB4C0B5A5
:10471000024603A800210190009101AB0121044849
:1047200078440C30FBF730FD06BC5DF810FB00BF91
:104730001B1700002DE9F843040017D02078B74E6E
:10474000C10745D5B06800F00C00042807D0B06858
:1047500000F00C0008280BD17068410208D53068C1
:10476000810335D56068002840F0BA80012053E10C
:104770006068B0F5803F04D1306840F4803030602C
:1047800011E0B0F5A02F306806D140F480203060F1
:10479000316841F4803105E020F4803030603168C8
:1047A00021F480213160606868B100F0C9FA0546E3
:1047B0003068810300F1948000F0C2FA401B652844
:1047C000F6D3032028E100F0BBFA054630688103E8
:1047D00040F1868000F0B4FA401B6528F6D3F0E77C
:1047E00000F0AEFA401B022840F2A780E9E7E0683B
:1047F00070B10121396000F0A3FA054630688107E5
:1048000000F1CB8000F09CFA401B0228F6D9D8E7D3
:10481000386000F095FA05463168880763D500F0E6
:104820008FFA401B0228F7D9CBE7086000F088FA1E
:104830000546706F810775D500F082FA401B02288B
:10484000F7D9BEE70528306F06D140F00400306785
:10485000306F40F0010005E0400840003067306FE5
:1048600020F00400306741F28938A06868B100F098
:1048700067FA8146306F810700F19C8000F060FA92
:10488000A0EB09004045F5D39BE700F059FA8146BB
:10489000306F810740F18E8000F052FAA0EB0900E2
:1048A0004045F5D38DE700F04BFA401B022840F25B
:1048B000968086E700F044FA001B022840F2A780A9
:1048C0007FE70020386600F03BFA0446306881013B
:1048D00040F1A18000F034FA001B0228F6D970E7FD
:1048E00020784F4F81071BD5B06810F00C0F09D00E
:1048F000B06800F00C0008287FF479AF70684102BE
:104900003FF575AF3068810703D5E06801287FF473
:104910002DAF3168206921F0F80141EAC001316012
:10492000217808070DD560693E4900283FF47DAF26
:1049300001220A6000F004FA0546706F81077FF5D6
:104940004FAF207841073AD5306C0025C1000AD41A
:1049500000950125316C41F080513164306C00F0DC
:10496000805000900098DFF8C080D8F80000C105A2
:104970001BD4D8F8000040F48070C8F8000000F0A4
:10498000DFF98146D8F80000C1050ED400F0D8F94F
:10499000A0EB09000228F5D913E73068216920F05F
:1049A000F80040EAC1003060BAE7A06801287FF44F
:1049B00049AF4DE71DB1306C20F080503064A069E4
:1049C00048B3B16801F00C0108293FF4CFAE0228CA
:1049D0007FF477AF0020386600F0B2F90546306802
:1049E00081013FF560AFE269206A616A0243A06A13
:1049F000400842EA8112401E42EA0042E06A42EA6E
:104A0000006272600121396600F09AF9044630684C
:104A100081017FF54FAF0020BDE8F28300380240EE
:104A200000004742800E4742007000402DE9F041EF
:104A300004000F4677D0474E306800F00F00B842B0
:104A400002D200F072F86ED12068434D810712D572
:104A5000400703D5A96841F4E051A9602078010717
:104A600003D5A86840F46040A860A968A06821F058
:104A7000F0010143A9602178C8074CD5606801287E
:104A800002D129688A0305E0022818BF032803D150
:104A900029688A0103D446E029688A0743D5A968B2
:104AA000890840EA8100A86000F04AF98046A868B9
:104AB000616800F00C00B0EB810F2CD000F040F9E1
:104AC000A0EB080041F289318842F0D3032020E0B6
:104AD0002078410705D5AA68E06822F4E052024335
:104AE000AA602178080706D5A968206921F46041E9
:104AF00041EAC001A96000F039F8AA681749184BCB
:104B0000C2F30312895CC8401860002000F078F9F5
:104B10000020BDE8F081306800F00F008742D7D256
:104B200000F003F8D4D00120F3E73770316801F0CA
:104B30000F01B94270470A48006870470848094A9F
:104B4000006813680849C3F38222FFE7895CC84004
:104B500070470000003C024000380240485D0008F9
:104B60000C00002008380240885E000830B5144C64
:104B7000606800F00C00042802D0082802D01DE074
:104B8000104830BD226820680023410202F03F0235
:104B900004D525680B49C5F3881003E020680A494D
:104BA000C0F38810A1FB0001FCF71CFC2168C1F3D5
:104BB0000141491C4900B0FBF1F030BD024830BD55
:104BC0000438024000127A000024F400F8B50446CC
:104BD000524D207810F0050F3AD0514E0020306031
:104BE00000F0AEF807462968080126D500F0A8F8BD
:104BF000C01B0228F7D90320F2BD00F0A1F8801BEA
:104C0000022822D9F7E700F09BF8801B022835D94B
:104C1000F1E700F095F8801B41F28931884248D3D2
:104C2000E9E7A86820F4F810A860286FE168C1F3EC
:104C30000B01084328670020F2BDA168606800F0FE
:104C400066F8326000F07CF8064628680101D4D589
:104C500020788107EFD500200090296C314F41F07A
:104C600080512964286C00F08050009000983968C9
:104C700041F48071396000F063F806463868C10578
:104C8000C1D5286F10F440701EBFE16801F4407177
:104C9000884211D0286F244901220A6000230B604A
:104CA00020F440702867286FC10705D500F048F848
:104CB0000646286F8107ACD5E16801F44070B0F575
:104CC000407FAED1AA68194822F4F812014011437E
:104CD000A960AAE701460020012917D114494A68B2
:104CE000120213D40868096842024CBF11481248E6
:104CF00001F03F01114AB0FBF1F11068C0F38810D8
:104D000041431068C0F30270B1FBF0F0704709072F
:104D100041EA8011094801600122704700380240D1
:104D20006800474200700040400E4742FFFCFF0F02
:104D30000438024000127A000024F4008438024053
:104D400001484068704700BF0000002000B500BF68
:104D5000130096469446103928BFA0E80C50FAD8A4
:104D60005FEA417C28BF0CC048BF40F8042BC9074C
:104D700028BF20F8022B48BF00F8012B00BD7FB5EB
:104D80001446002201910392082500260295009600
:104D9000002327E038B584B000F013F8002309E0C1
:104DA0007FB500F025F800231BE038B584B000F093
:104DB00008F8022300222146FDF711FD002005B06E
:104DC00030BD1C46089D90F81D3303B100250395A6
:104DD000029201910125009570477FB500F008F817
:104DE000022301222146FDF7FAFC002004B070BD29
:104DF000029201911C4600250126039500967047FA
:104E000038B50D4D0D4B2A7804464FF47A71186869
:104E1000B1FBF2F2B0FBF2F0FEF793F950B9102CAF
:104E200008D2002221464FF0FF30FEF763F9AC6054
:104E3000002032BD012032BD000000200C00002007
:104E400080B50020009000226248416841F4804112
:104E50004160416801F4804100910099009203682B
:104E600043F080530360006800F080500090009889
:104E70000720FEF732F9002200216FF00B00FEF749
:104E800039F9002200216FF00A00FEF733F9002201
:104E900000216FF00900FEF72DF9002200216FF0CC
:104EA0000400FEF727F9002200216FF00300FEF74F
:104EB00021F9002200216FF00100FEF71BF9BDE887
:104EC0000840002200214FF0FF30FEF713B981B0F7
:104ED0000068414988420BD1002240480092016895
:104EE00041F480710160006800F4807000900098C7
:104EF00001B0704700683A49884200D0704780B5D9
:104F000086B04FF410720192122102910122039295
:104F1000002104910422059201A93248FDF7E4FF23
:104F200000212C480091026842F4001202600068DF
:104F300000F400100090009807B000BD00682A49F6
:104F4000884200D0704780B586B000222148009288
:104F50000222016841F4004101601021006800F460
:104F6000004000F02EF80621059101A9FDF7BCFFD5
:104F70004FF4A45101910222002103910491029265
:104F80000621059101A9194817E0006819498842CE
:104F900000D0704780B586B00022104800920222EF
:104FA000016841F480510160E021006800F4805004
:104FB00000F007F80521059101A9FDF795FF07B05D
:104FC00000BD009000980A480191029200210391CF
:104FD00004917047403802400020014044380240AC
:104FE0000054004000040240003C00400008024021
:104FF00000000240003001407047704770470000D9
:105000002DE9FE438046012302220221FEF721F909
:1050100002258146B9F1FF0F71D049464046FEF79F
:105020000CF9502000F08EF908F547761A24B16D7E
:10503000C86114FB09F9B06DC76908EB090101F5F6
:10504000527001780A0602D579704088788140460E
:105050007978FEF7E9FC01463970032278890290DD
:1050600001924046737800937A783378FEF7CBFC50
:10507000397800F047F8002300220A214046FEF765
:10508000E8F8FF283BD014FB00F0404400F55270D4
:1050900001780A0603D5F9734188798302E0B97370
:1050A00041883983017A0A0603D5F97340897883E8
:1050B00002E0B973408938834046B97BFEF7B4FCFF
:1050C00078734046F97BFEF7AFFC3873388B00F0FD
:1050D0001DF8BA7B797BFEF796FC788B00F016F80A
:1050E000FA7B397BFEF78FFC002087F84C0000220A
:1050F000797B00F008F8397B00F004F80025284699
:10510000BDE8FE8300224046FDF793BB0290019567
:105110004046727800923378704738B500F0BEF898
:10512000297839B100F0BFF829782046FEF798FCBD
:1051300000202870297B39B100F0B5F8297B204682
:10514000FEF78EFC00202873697B39B100F0ABF8C4
:10515000697B2046FEF784FC00206873D4F8740352
:10516000C06928B100F08EF9D4F874130020C8612A
:10517000002032BD70B5044604F55D752A68D36918
:1051800003F1400100F092F8060003D12A6D0221DC
:1051900020469047304670BD70B505460124D5F8CD
:1051A0007403C06900F14006307B042872D8DFE840
:1051B00000F0030516356B0000246BE0B168212078
:1051C0002874202200206A746882A8820723EB8258
:1051D00007222846FEF780FDE0B9022059E031465B
:1051E000284600F063F8A8B93073B06831790279C5
:1051F000914202BFB179827991424BD17179427962
:10520000914202BF31680068814243D1284600F0D4
:105210003BF93FE001283DD004203AE0284600F069
:1052200050F8D5F87403C66996F84E00032821D0CB
:1052300004282FD1317B2846FDF7EAFA012829D12D
:10524000317B2846FDF7A7FA81B2B06A401A0AD02E
:10525000728B8A4207DAB062306A084403213062F6
:1052600086F84E1016E0002086F84E00284600F022
:105270000CF90FE0337B728B316A2846FFF7ADFDE6
:10528000042086F84E0005E000212846FEF779FC50
:1052900000B93073204670BD002070470446D4F832
:1052A0007403C56970472046FEF7B9BBA12202749A
:1052B000212300224282828243740722C282FEF7A7
:1052C0000BBD7CB5FFF7EAFF95F84D00012802D031
:1052D000022811D073BD686A2A8BE9696B7B824210
:1052E00002D20120009002E00126009682B2204600
:1052F000FFF75BFD022020E0697B2046FDF788FA7E
:10530000012817D1288B6A6A904204D2111AEA69DF
:105310001044E86100E000210800696203D0012127
:1053200085F84D1073BD85F84D102046BDE87640D8
:1053300000F006B8022802D1012085F84D0073BDA7
:105340007047000010B50446AFF30080204600F01F
:1053500005F80446AFF30080204610BD70B500F19B
:105360000F06F608F600B04240D2082E04D20826F6
:1053700002E0083000F047F8DFF804512C68210003
:1053800005D1002007E00268B24221D2011D086861
:105390000028F8D12068291D0A68824222D01368AB
:1053A000B34238BF111DF7D312E093190B60801B75
:1053B00054685C600B6818601660096800291DBF9E
:1053C00048680028081D0020286002F1080070BD10
:1053D00061B10A681068A0F10803B342E5D25068D1
:1053E0000860EAE700F052F80028C2D1002070BD42
:1053F00010B5040006D0AFF30080204600F003F89B
:10540000AFF3008010BD002800D1704770B4A0F148
:1054100008021368072B2BD913F0070F28D1184C5B
:10542000616809B18A4202D25160626013E0486843
:1054300000B3904238BF0146F9D31BE0964203D136
:105440001B180B600A4606E0486810B113449842E6
:105450000ED350604A60506850B11368D518854229
:1054600006D1002626600168CB18136040685060A2
:1054700070BC704708680E18B242DFD270BC70472B
:10548000640A0020FFF7B4BF7047704707490868F7
:1054900008B1002070470648C008C00008600549F0
:1054A000C908C900091A0160704700BF700A0020CE
:1054B0007F0E0020781000202DE9FC410546DFF822
:1054C00090822868DFF880628168DFF8804201916D
:1054D00040450CBF211D311D09680091C26902F4CD
:1054E0004072B2F5007F1CBFC16911F4407F5CD1EE
:1054F00001998A0706D54068020603D5002128468F
:1055000000F0AFF80098C1070BD5286840450CBFE4
:10551000204630460168480603D50121284600F0A0
:10552000D6F8009841064FF65F7725D528684045A4
:105530000CBF2146314609688A061DD540450CBF7F
:1055400020463046016821F060010160286841680A
:1055500039404160002000902968CA68009289683B
:1055600000910121009885F84110686C40F002001C
:1055700068642846FFF740FD0198010769D528684F
:1055800041688A0665D541680F40476028684045F4
:1055900008BF26460020316821F06001316000908C
:1055A00029688868009000994AE000998A070AD51E
:1055B00040450CBF204630460068010603D5012156
:1055C000284600F04EF80198C10707D528684168C1
:1055D000480603D50021284600F079F801984106D5
:1055E0004FF69F7716D5286841688A0612D541681C
:1055F00039404160286840450CBF2046304601686C
:1056000021F0A001016000F026F841F00201696478
:10561000FFF7F2FC009801071BD5286840450CBF36
:105620002146314609688A0613D5404508BF2646FB
:10563000306820F0A0003060286841680F40476063
:1056400000F009F841F004016964BDE8F641FFF794
:10565000D3BCBDE8F381012085F841002846696C80
:10566000704770B599B9416A8A1C4262036809881B
:10567000D960418D4A1E4285418D39BB01684B6816
:105680004FF65F7213404B60418EF9B91DE001681F
:105690002F4C2D4A2D4B456AA1420CBF03F1080146
:1056A00002F10801AE1C46622D880D60418D4E1E30
:1056B0004685418D51B90568A54208BF1A46136851
:1056C00023F0A0031360418E01B935E070BD70B5C1
:1056D000C26A91B9911CC1620368D9681180428E77
:1056E000531E4386418E31BB01684B684FF69F7253
:1056F00013404B60418DF1B91CE0931CC3620168FB
:10570000134D114B114CA9420CBF04F1080103F1D8
:10571000080109681180428E561E4686418E51B995
:105720000268AA4208BF23461C6824F060041C607B
:10573000418D01B900E070BD012280F84120BDE833
:10574000704000F007B800000440004004340040FE
:105750000038004070472DE9F04107468846387808
:1057600010F0030F16461D4633D0384600F09AF865
:1057700078BBB8F1000F1CBFD8E900018619012DD4
:105780002ED13888C10415D5396A07F1440238464C
:1057900000F0A4F83A6B044602B93A69F968384651
:1057A00000F09CF8361B341A7A69F968384600F024
:1057B00095F8261A1EB94DB916F1010F09D097F9BF
:1057C00003002A46314600F08FF8064616F1010F15
:1057D00009D12320AFF300804FF0FF30BDE8F08106
:1057E000022DE8D1EBE7388810F4405F0ED07868DE
:1057F000F86038617861B86107F144017868F86150
:10580000396207F13000002178623963B8F1000F86
:1058100005D0D8E9020107F13402C2E900013B8852
:105820004CF6FF6003403B800020BDE8F0810000A3
:1058300070B50546AFF300802888810415D56E68E1
:105840000024EA6895F903003146914212D2521AB7
:1058500000F06FF810F1010F1CBF00283618F0D1CE
:105860000FE04DF6FF70014029802846AFF300801D
:10587000002070BD0022002100F05BF810F1010F44
:1058800000D101246868E860A861E861002C2988DB
:10589000E7D041F4007129802846AFF300804FF033
:1058A000FF3070BDF8B5A0B9AFF3008000250A4EF7
:1058B00008244FF0FF37306820B1FFF7B9FF002808
:1058C00048BF3D46361D641EF5D1AFF30080284623
:1058D000F2BDBDE8F240ABE788010020914234BF41
:1058E000511A0021084670473EB504000D00012AF8
:1058F00002D100F06BF807E0022A07D100940020E3
:10590000019069460C20ABBE2D1801E0002A0CD195
:105910000094019569460A20ABBE002805D10022FB
:105920002100280000F02FF801E00020C04303B060
:1059300030BD80B5002802D400F06AF802BD002016
:1059400002BD000010B4314A002113461C68844295
:105950001EBF491C9C6884421EBF491C1C698442AE
:1059600009D09C69491C844205D0491C2033102968
:10597000ECD310BC7047002342F8313002EBC10178
:105980004B6010BC704770B4204C002325462E6835
:105990008E421EBF5B1CAE688E421EBF5B1C2E6912
:1059A0008E4209D0AE695B1C8E4205D05B1C20354F
:1059B000102BECD370BC7047054604EBC303012ADF
:1059C00004BF59684D195D6070BC704710B40F4A30
:1059D000002113461C6884421EBF491C9C688442F7
:1059E0001EBF491C1C6984420AD09C69491C844220
:1059F00006D0491C20331029ECD310BC002070477E
:105A000002EBC100406810BC70470000FC08002099
:105A100080B5002901D1002002BD012801D0022853
:105A200002D100F005F802BD00F02AF802BD000026
:105A300070B40B00002111480068C0010FD40800A9
:105A400070BC70475D782D0225439C7826042E4358
:105A5000DC78240634431B1D0460121F091D002A34
:105A6000EDD0E02000060468002CFAD01C78042A4F
:105A7000E8D204705B1C491C521EF0E7FCED00E00C
:105A800018B583B003001400009301910294694695
:105A90000520ABBE01221900201AFFF774FF04B0E5
:105AA00010BD10B50446E068A169884251D3218831
:105AB00049F202030B40022B08D008044CBF4FF4FC
:105AC00000704FF48440014321803BE001F4C04268
:105AD000B2F5C04F06D1A168884203D32046FFF734
