:020000040800F2
:10000000D04B002075710008B5700008B77000086B
:10001000B9700008BB700008BD7000080000000047
:10002000000000000000000000000000B52B0008E8
:10003000BF700008000000005D2B0008C1700008C0
:10004000BD710008C1710008C5710008C9710008C0
:10005000CD710008D1710008D5710008D971000870
:10006000DD710008E1710008E5710008E971000820
:10007000ED710008F1710008F5710008F9710008D0
:10008000FD7100080172000805720008097200087D
:100090000D7200081172000815720008197200082C
:1000A0001D720008217200082572000829720008DC
:1000B0002D7200083172000835720008397200088C
:1000C0003D7200084172000845720008497200083C
:1000D0004D720008517200085572000859720008EC
:1000E0005D7200086172000865720008697200089C
:1000F0006D7200087172000875720008797200084C
:100100007D720008817200088572000889720008FB
:100110008D72000891720008C57000089572000881
:10012000997200089D720008A1720008A57200086B
:10013000A9720008AD720008B1720008B57200081B
:10014000B9720008BD720008C1720008CB700008C7
:10015000C5720008C9720008CD720008D17200088B
:10016000D5720008D9720008DD720008E17200083B
:10017000E5720008E9720008ED7200080000000056
:10018000F1720008F57200082DE9F04F0FF2A41C7F
:10019000A1B0DCE90089CDE900892A9DDFF8109C37
:1001A000049100248DF843500D944FF0FF3882469F
:1001B00016461F460FE0B3462C461BF8011B049859
:1001C000D0470028049000F0A2800D98401C641EC7
:1001D0000D90F2D176193078252808D1002100221F
:1001E0000791089209910A920B910C920DE06A46D0
:1001F0004146304600F0F4FF050001D10D98A1E022
:10020000D9D50125E6E741F0010116F8010F2028B4
:10021000F9D023280CD02B2804D02D2805D0302845
:1002200009D076E041F00201EFE741F00401ECE78C
:1002300041F00801E9E741F01001E6E70F9209E01B
:100240000F98484505DA00EB800402EB4402303A8F
:100250000F92761C3278A2F130000A28F0D3307861
:100260002E2818BFCDF8388022D116F8010F2A2881
:1002700007D138683860761C50F8042B38600E922D
:1002800016E02D280CBF761C002000220E920AE0FA
:1002900040B90E9A4A4505DA02EB820403EB4403A7
:1002A000303B0E93761C3378A3F130020A2AEFD349
:1002B000ADF8401021A0317800F09CFF08B116F88D
:1002C000010B8DF842009DF84200682804D1307877
:1002D00068280AD1622105E06C2804BF30786C28B8
:1002E00003D171218DF84210761C12A806903A466F
:1002F00016F8013B02A9504600F064F838B912AA7A
:1003000002A9504600F0CAF900287FF564AF4046C4
:1003100018E02A2892D13A683A6052F8040B3A6001
:1003200000280F9003D540420F9041F00401761C45
:1003300095E700000000000000000000686A6C748F
:100340007A4C000021B0BDE8F08F622820D06828E8
:1003500011D06A2803D06C2827D0712825D10868CD
:10036000C01D20F007000860D0E9002308300860B5
:10037000194610467047002A0A680A60106803D0C0
:10038000121D0A6000B217E0121D0A6080B217E069
:10039000002A0A680A60106803D0121D0A6040B281
:1003A0000AE0121D0A60C0B20AE0002A0A680A6068
:1003B000106803D0121D0A60C1177047121D0A6031
:1003C000002170477CB50D4611461C462E69B4F1DC
:1003D000250200F051811C3A00F08680121F022A8B
:1003E00040F282800E3A00F00B81521F5AD0093A37
:1003F0007AD0921E16D0521E35D0521E022A73D9C0
:10040000121F30D0521F00F09A80521E4AD0521E46
:1004100000F0E480D21E00F00181921E42D0D21E74
:1004200040D02FE195F83A406C2C09D06869421C05
:100430006A610A680A6052F8043B0A6033542BE18F
:100440000A680A6052F8043B0A6000930022019295
:100450004FF0FF332B636A46294600F09AF90028D3
:1004600040F11A8105E195F83A000122FFF76DFF8E
:10047000C5E900010023994204DA6869411C6961F9
:100480002D220DE0288F810704D56869411C696120
:100490002B2205E0C00722D56869411C6961202232
:1004A00032541CE095F83A000022FFF74EFFC5E9F0
:1004B000000195F83800010711D5D5E90023002087
:1004C000834208BF82420AD044F02000782806D137
:1004D000686930213154401C421C6A613454214601
:1004E00068693044E86087E00868C01D20F00700B4
:1004F0000860D0E9002308300860C5E90023D5E989
:100500000001C80F04D06869411C69612D220DE00B
:10051000288F810704D56869411C69612B2205E099
:10052000C00704D56869411C69612022325468699A
:100530003044E8602146284600F03AFAACE005F184
:100540003A02507820B14FF0FF340FF6343074E0A7
:100550001078622808D0682824D06A2812D06C2825
:100560002ED071280ED02BE00A680A6052F8040BD6
:100570000A6020B94FF0FF340FF61C305DE0E96AE5
:10058000017089E00A680A6052F8040B0A6020B919
:100590004FF0FF340FF600304FE0EA6AD317C0E99E
:1005A000002379E00A680A6052F8040B0A6020B957
:1005B0004FF0FF340FF6E0203FE0E96A01806BE086
:1005C0000A680A6052F8040B0A6020B94FF0FF3441
:1005D0000FF6C42031E0E96A01605DE00A680A6054
:1005E00052F8040B0A60002120F0000221F0FF33D2
:1005F000C5E90023EE607821284600F02DF94BE094
:100600006C2285F83A200B680B6053F8042B0B60C2
:1006100052BB4FF0FF340FF6B4200EE095F83A20AD
:100620006C2AF0D00868086050F8044B0860EC6051
:100630003CB94FF0FF340FF6782000F003FE201A8B
:1006400076BD2E6B002E04D5204600F01BFE04461E
:1006500008E032460021204600F03EFE002814BF8C
:10066000041B3446AC6117E0294600F092F80028DC
:1006700012D54FF0FF3076BD6869411C69612522B3
:10068000325409E06969481C6861252272542100CE
:1006900002D0431C6B613454002076BD2DE9F0413B
:1006A0000E4605469046726B7069316AB46A121A3A
:1006B000B069521A716A121AF069521A121A96F82F
:1006C0003800141B41070DD4002C0BDD2746B06801
:1006D0002021A8470028B06057D0F06A401C7F1E38
:1006E000F062F4D1736942463146284600F0B0FC0E
:1006F00000284AD1376A002F0ADDB0683021A847A8
:100700000028B06041D0F06A401C7F1EF062F4D136
:10071000B369F2683146284600F09AFCA8BB776AB4
:10072000002F09DDB0683021A847B06068B3F06AD7
:10073000401C7F1EF062F5D1F068B169F369421880
:100740003146284600F084FCF8B9B76A002F09DD6D
:10075000B0683021A847B060B8B1F06A401C7F1E75
:10076000F062F5D196F8380041070BD5002C09DD71
:10077000B0682021A847B06038B1F06A401C641E00
:10078000F062F5D10020BDE8F0814FF0FF30BDE808
:10079000F0812DE9F8470D46A3B02F6B002F0646D8
:1007A000904648BF6FF000470FF63C1400F0C0FDC4
:1007B000D4E90023696B4018CDE90123812828BFC3
:1007C0004FF0FF3042D20024002F33DDD8F8001064
:1007D00001AA684600F006FD8146B9F1000F38D441
:1007E000D8F8000010B9B9F1010932D44F4521DB26
:1007F0006869484481280AD30021696303AA29460D
:100800003046FFF74BFF040014D40020686103ABAF
:10081000D5F814A04A46694603EB0A0000F08EFDA5
:10082000CA44C5F814A058F8040B002818BFA7EB59
:100830000907C9D14CB903AA29463046FFF72EFF54
:10084000044614B9002068616863204624B0BDE8FE
:10085000F0874FF0FF34F8E72DE9FC4707468C4658
:100860003E69BCF16F0F08BF082405D04CF0200092
:10087000782814BF0A2410243C25D7E90023BCF1B2
:10088000640F18BFBCF1690F9046994606D100214C
:100890008B4203DAD8F1000869EB49094FF0000AEE
:1008A000D14508BFD0451FD1386BE8B9082C4BD1D2
:1008B00097F83800010747D530203B2586F83B00E4
:1008C00042E000280ED597F8380000F014001028F8
:1008D00008D17B6B7969386A5B1A1B1A9A1A002A4D
:1008E000C8BF3A62BDE8F3878DF800C0404649466C
:1008F0002246E31700F076FD3032D0B26D1E3A2862
:10090000019504DB9DF80000A0F151018A18725591
:10091000404649462246E31700F064FD894680467A
:10092000D14508BFD04503D0F86871198842DDD39E
:10093000082C09D197F83800010705D5705D3028DB
:1009400002D06D1E30207055C5F13C02BA6171199C
:10095000F960386B8242B4DA821A3A624FF6EF706D
:10096000398F01403987BDE8F3872DE9D04306462A
:100970000F4614464FF00008DFF8389412E0E00705
:1009800007D542464B463046394600F043FE064600
:100990000F464046494642464B4600F03BFE641037
:1009A00080468946002CEAD130463946BDE8D083DE
:1009B0002DE9F34F054641F020048DB0D5E90089BB
:1009C000612C02AE09D0286B002848BF062003D452
:1009D00008BF672C01D101202863D5E90023580006
:1009E0004015401C0ED119030CD00320A8619DF8BE
:1009F000381061391A2902D20FF2F46111E00FF2B6
:100A0000F4610EE059004915491C0FD118030DD1AE
:100A10000320A8619DF8381061391A2914D30FF208
:100A2000DC61E868032200F089FCD3E1194621F07B
:100A30000043B3F5801F10460DD20027BB4208BF0C
:100A4000BA42019703D111E00FF2AC61E9E701AAC4
:100A500000F0B2FE0AE0DFF8607307EB1352DFF834
:100A60005C3301921940DFF858331943C5E900019E
:100A7000612C0ED1E86830210170821CEA609DF87B
:100A8000381061290CBF7821582141706869801C99
:100A90006861D5E900AB2BF0004300202AF000028A
:100AA000834204BF8242002300F05B81612C40F04E
:100AB000AA80286B002847BF21210091401C00908C
:100AC000009F7F1C404649460022002300F0ACFEF8
:100AD000D94601998DF8082038BF89F00049091FCF
:100AE000002FD04601910DF1090040F34981B3492F
:100AF000DFF8D0B20C91064640464946002200235A
:100B000000F0AAFE80F03B814800400D00F11C027D
:100B100011D0002A0FDD40F2FF70824205DB09F0A0
:100B2000004040EA0B01002013E00C98014041EA2C
:100B3000025140460DE029F00043002028F0000259
:100B4000834208BF82420FBF40461C22404600F04D
:100B50009BFE8046894600F035FFFF1F002F0446AC
:100B600009DD00F04DFF02460B464046494600F0C5
:100B700059FF80468946F01D072104E004F00F026A
:100B800000F8012D2411002C01DD491EF6D5491E67
:100B90005CBF002200F8012DF9D5ECE000201946D9
:100BA00002AA0A4400E05B1E12F80149491E844271
:100BB000F9D00F2804D10DF10900425C521C4254B7
:100BC000002904D50198001D02AE5B1C0190591E3E
:100BD00012D49DF838007218A0F13A07147804F185
:100BE00030085FFA88F43A2CA8BFB844491E02F8CE
:100BF0000189F3D58DF83800286B002840F1B080CA
:100C0000591E2963ACE0404649460022002300F00B
:100C10000BFE019938BF89F0004947F297504143D4
:100C2000694A91FBF2F20192D2F1070204DD4046DB
:100C30004946FFF79AFE0AE0524200206349FFF757
:100C400094FE02460B464046494600F05DFF804652
:100C5000662C286BDFF878B106BF019F0A3706279C
:100C60003F18142FC8BF142730208DF8080089467C
:100C70000DF1090000E03046002F34DD0646404605
:100C8000494601F065F801460A4606F108030420CA
:100C90000A26B2FBF6F606EB860EA2EB4E023032C7
:100CA00003F8012C0A22B6FBF2F202EB820EA6EB4D
:100CB0004E063036401E03F8026DE9D1083F002F82
:100CC00003F10806D7DD084601F056F802460B4648
:100CD0004046494600F0A6FE00225B4600F09AFC22
:100CE00080468946CBE70DF10901401A0DF109064E
:100CF00004E00199491E401E0191761C317830298B
:100D0000F7D0662C02D10199491C03E0652C0CBF79
:100D1000012100212B6BCB189842B8BF431E002B3A
:100D20001ED4834204DAF05C3528A8BF392000DAEB
:100D300030201946721E02EB010800E05B1E18F815
:100D40000199491E8145F9D0392802D1705C401CB7
:100D50007054002904D50198401C16465B1C019074
:100D6000019800B200901BB29DF838103246284618
:100D700000F034F82EE0C61D002F3FF7BDAE304620
:100D80000DF10901401A009903468842C8BF0B467D
:100D9000002B0DF109063FF52FAF8342BFF6FEAEE3
:100DA0000DF10900C15C07297FF7F8AE0F20F6E6C8
:100DB000CBCCCC0C0000244002FCFFFFFFFF0F80D7
:100DC0000000E03F0000F07FA08601000000F03F3F
:100DD00084D797410FB0BDE8F08F00002DE9F847A8
:100DE00083B006468A461746984600F0FDF9B8F1EA
:100DF000000F406A356B90F8009002DC4FF001085C
:100E0000BFA74AF02000BDF93040662808BF641C27
:100E100015D0672840F0848014F1040FC0F286805A
:100E2000AC4280F2838096F83800641C010702D43B
:100E3000A845B8BF454620B22D1A48BF00250FFA75
:100E400084FAF068B169BAF1000F25DC4A1C30233E
:100E50004354002D03DC96F83800010703D5F068F1
:100E600000F80290521C15EB0A0FB8BF6C4220B27A
:100E7000441941424445B8BFA046B26171620FFABD
:100E800088F5F561F068B3692A463946184400F0E0
:100E900055FA641BB462C4E022B29045084417DAE4
:100EA0004246394600F04AFAB0694044B061AAEBC4
:100EB0000801002D716203DC96F838100A0705D589
:100EC000F16801F80090F069401CF061B562A8E09B
:100ED000394600F033FAB069002D5044A8EB0408FD
:100EE00003DC96F838100A0703D5F16801F8009082
:100EF000401CB0610FFA88F08542F368B069B8BF52
:100F0000A8460FFA88F207EB0A01184400F016FA17
:100F1000B1690FFA88F00144B161281A706280E06B
:100F2000BAF1610F14D14FF0700A16E0A84504DA47
:100F300096F838100A0758BF45466D1E48BF002571
:100F4000BAF1670F14BF4FF0450A4FF0650A04E08D
:100F5000BAF1410F08BF4FF0500AB169F368481C5D
:100F6000B061002D17F8012B5A5403DC96F83810A5
:100F70000A071BD5F168431CB36101F80090002DEE
:100F800014DDA8F101080FFA88F039468542F768A8
:100F9000B8BFA8460FFA88F2F81800F0CFF9B06988
:100FA0000FFA88F108446D1AB0617562F068B16992
:100FB0000844002C80F800A003D42B224270811C2E
:100FC00003E02D2141706442811C00206A460AE042
:100FD00023460A2493FBF4F404EB8405A3EB4503B6
:100FE00002F8013B401C24B2002CF1DC012806DC95
:100FF0004AF02002652A04BF302201F8012B48B9CB
:10100000302001F8010B07E0401E1DF8003030339E
:1010100001F8013B0028F7DCF268B0691044091AB6
:10102000F16196F8380000F0140010280DD17269B3
:10103000B169706A8A18F1698218B06A8A188218D0
:10104000706B8242BCBF821A326204B0BDE8F08786
:10105000F8B505460E4617461C46002074B117F831
:10106000011BB068A847B06030B1F06A401CF06264
:101070000020641EF3D1F2BD4FF0FF30F2BD00003E
:101080007072696E74665F733A20256E20646973AE
:10109000616C6C6F776564007072696E74663A207B
:1010A00062616420256E20617267756D656E7400E3
:1010B0007072696E74665F733A2062616420257392
:1010C00020617267756D656E740000007072696EE4
:1010D00074665F733A2062616420256C73206172CC
:1010E00067756D656E740000000000000000000070
:1010F0006E616E004E414E00696E6600494E4600BC
:101100003000F0B40246106895681318506803EB7D
:101110005004C0071DD54D441BE013F8017B05F8B2
:10112000017B491EF9D1A0B1B60813F8011B06F0E6
:101130000306032E08BF13F8016B01EB0621494299
:10114000801C294405D011F8016B05F8016B401E85
:10115000F9D1A3420ED013F8016B16F0030104BFBE
:1011600013F8011BC91C30090F28DAD113F8010B41
:101170000F30D6E7F0BC02F10C0070471B487047F7
:1011800070B45368D418042B09DA41B1057804F817
:10119000015B10F8016B16B15B1C491EF3E753604D
:1011A00070BC704738B514461D4661B1FFF7E8FFC3
:1011B00061686A6B204690476FF00102811A02D085
:1011C000491E01D001E003E005E00021616032BD6D
:1011D0006FF0010032BD4FF0FF3032BDDA6B1047C7
:1011E000024BDFE7014BF9E701487047740000202C
:1011F0003C0000200278C9B28A421AB11CBF10F824
:10120000012FF9E718BF0020704730B4002513E024
:1012100050F8042BD30744BFA9F101039A18091F02
:10122000042942F8045BFAD213468C0744BF1580A8
:101230009B1CC90748BF1D7050F8041B0029E7D14B
:1012400030BC704780B500B906A005490B681BB1DA
:1012500022220021984701E000F09BFD222002BDE0
:10126000C4470020636F6E73747261696E74206886
:10127000616E646C65723A20626164206D6573739F
:101280006167650000F10103810704D010F8011BBC
:10129000820781B1FAD10268A2F10131914311F0C4
:1012A000803104BF50F8042FF6E709BAB1FA81F192
:1012B00000EBD100401CC01A7047B1F5807F02D30B
:1012C0004FF0FF3070470170012070470078401EDA
:1012D0008041C043C00F7047C9B2830706D0521E79
:1012E00022D310F8013B9942F7D11FE0083A13D3FB
:1012F00002F1040241EA012141EA014150F8043BB4
:10130000121F21BF4B40A3F1013C2CEA030C1CF03F
:10131000803FF3D0C9B2001F083210F8013B521EC3
:1013200028BF91EA030FF8D818BF0120401E70476C
:1013300080B5FFF723FF006C02BD000062B38B078E
:1013400008D0521E11F8013B00F8013B00F0248048
:101350008B07F6D1830740F0208000BF103A07D3F7
:1013600030B4B1E83810103AA0E83810F9D230BCE7
:10137000530724BFB1E80810A0E8081044BF51F893
:10138000043B40F8043BD20724BF31F8022B20F87D
:10139000022B44BF0B7803707047121F17D35B00FA
:1013A00009D151F8043B20F8023B1B0C121F20F816
:1013B000023BF6D20BE051F8043B00F8013B1B0A5C
:1013C00020F8023B1B0C121F00F8013BF3D238BF80
:1013D000121D521E24BF11F8013B00F8013BF8D842
:1013E00070470000BBBBE1B1B2F5803F80F07E806A
:1013F000022A1ED98C46B1FBF2F102FB11C31B0479
:1014000043EA1043B3FBF2FC02FB1C3380B240EA18
:101410000343B3FBF2F002FB103240EA0C4000231E
:101420007047022A05D98446B0FBF2F002FB10C2D5
:1014300070474AB105D100F0010249085FEA300067
:10144000704700220023704700F0A6BC0B0002008A
:10145000002100207047904271EB030CF6D3B3F5E6
:10146000803F2FD2F0B5B3FA83F7B1FA81F4A7F138
:101470000F0E3D1B5340CEF1200602FA0EF2F3414F
:101480005340B5F10F0746D80F3C2C444140C4F1FE
:101490002006A040F1414140B1FBF3F603FB1611D9
:1014A000A2FB0645001BA94102D2761E80185941B5
:1014B00080EA010221FA0EF362FA0EF200215A408C
:1014C0003046F0BD30B4B1FBF3FC03FB1C11A2FBB2
:1014D0000C45001BA94103D2ACF1010C8018594105
:1014E00030BC02460B46604600217047B2F1807F57
:1014F00065D3F0B5B2FA82F7B1FA81F4C7F10F06FD
:101500003D1B22FA06F307F1110EF24120355A4035
:10151000B5F10F07B8D94140C4F12006A040F14110
:101520004140B1FBF3FC03FB1C11A2FB0C45001B6B
:10153000A94103D2BCF1010C801859410F2F12D3DD
:101540000F3FC90341EA5041B1FBF3F603FB16110B
:10155000A2FB0645D4EBC030A94102D2761E80180A
:10156000594146EACC3C07B34140C7F12006B84098
:10157000F1414140B1FBF3F603FB1611A2FB064516
:10158000001BA94102D2761E8018594180EA01024F
:1015900021FA0EF3C7F1200462FA0EF20CFA07F0FA
:1015A0005A402CFA04F13043F0BD80EA010221FADE
:1015B0000EF3002162FA0EF260465A40F0BD8C46EE
:1015C000B1FBF2F102FB11C31B0243EA1063B3FB50
:1015D000F2FC02FB1C331B024CEA002043EA1063BE
:1015E000B3FBF2FC02FB1C331B024CEA002043EA73
:1015F0001063B3FBF2FC02FB1C331B024CEA00201D
:1016000043EA1063B3FBF2FC02FB1C324CEA0020FD
:1016100000237047B0B581EA030C0CF0004C40F297
:10162000FF7515EA11541DBF15EA1357AC42AF42BE
:1016300039E0E41923EA455343F48013C90241F029
:10164000004141EA505EC7021100A7FB02020028D8
:101650004FF00000EEFB01204FF00001E3FB0721FB
:1016600018BF42F00102401800214941E3FB0E017E
:10167000A4F580640F0302D252004041494154F165
:1016800001046CDD470872F1004250F1000051EB9B
:101690000451A1F580115CBF41EA0C01B0BD4CEAD8
:1016A00005510020B0BD05EA1357AC4214BFAF424C
:1016B00041E050EA410E1CBF52EA430E02E061468F
:1016C0000020B0BD24423C441BD15FEA070EF6D097
:1016D000090302BF01460020AEF1140EB1FA81F7F2
:1016E000AEEB070401FA07FE0C37C7F1200100FA40
:1016F00007F7C8404EEA000E23EA455343F480132F
:10170000A2E733F00043B3FA83F704BFB2FA82FED4
:1017100077440B3FE41BB7F1200E2FBF02FA0EF304
:10172000BB40C7F1200E22FA0EFE38BF43EA0E037B
:10173000BA40641C82E750EA410E14BF52EA430EDD
:101740006FF000014FF4001717EB430F8ABF1946E3
:1017500017EB410FB5E74CEA05510020B0BDD4F1BD
:101760000104B4F120070FDAC4F12007520828BFA2
:1017700042F0010210FA07F501FA07F7E1BF2A4328
:10178000E0403843E1400FE0352C98DCC7F12004FD
:1017900052EA400220FA07F218BF42F0010231FA81
:1017A00007F0A1400A43002172F1004250F100000D
:1017B00051EB0C01B0BD000010B5144600F002F86A
:1017C000226010BDC1F30A5343B14A0012F5001F55
:1017D00028D2A3F2FE32A1EB0251704750EA410C2D
:1017E00020D001F0004C31EA0C01B1FA81F204BFC3
:1017F000B0FA80F3D2180B3AB2F120032CBF00FAF2
:1018000003F1914041EA0C013EBFC2F1200C20FAE5
:101810000CF319439040524240F2FD33D21A01EBCF
:1018200003517047002270474FF4001C1CEB410F1E
:1018300094BF1CEB430F09E041EA030C50EA4C0C47
:1018400052EA0C0C03D2994208BF9042704714BF71
:101850008B428242704700004FF4001C1CEB410F8A
:1018600094BF1CEB430F09E041EA030C50EA4C0C17
:1018700052EA0C0C03D28B4208BF8242704714BF5D
:101880009942904270470000124254D440F2FF7CCB
:101890001CEA11530FD0634531D09B1863453CBF00
:1018A00001EB0251704701F0004141EA0C51002068
:1018B000AFF30080704750EA410320D001F0004CA4
:1018C00091EA0C011CD0B1FA81F30B3B9A420DD97D
:1018D000D21A994051EA0C01C3F1200C20FA0CFCF9
:1018E00061449840531C40F2FF7CD7E7914041EAA5
:1018F0000C01C2F1200C20FA0CF319439040704700
:10190000B0FA80F31533202BE0D3202AEED3203A0F
:10191000203B9A4209D9D21A00FA03F141EA0C019C
:101920000020531C40F2FF7CB8E700FA02F141EAC4
:101930000C0100207047524240F2FF7C1CEA115318
:101940000DD06345DBD0B2EB030C3CBFA1EB0251E1
:1019500070470CF1010221EA035141F4801150EA71
:10196000410CCCD001F0004C352A27DC30B481EAA0
:101970000C01B2F1200309DAC2F12003044601FA96
:1019800003F5D0402843D1409C400CE0C3F1200235
:10199000450020FA03F418BF44F0010421FA03F0D3
:1019A00091400C43002174F1004550F1000051EBCF
:1019B0000C01244230BC7FF47BAF704761460020AD
:1019C00076E70000C1F30A5340F2FE329B1A14DDA1
:1019D000D3F120034FEAE17208DDC90241EA505118
:1019E00041F00040D84080185040704703F2E13089
:1019F00010B1D24382F000407047002070470000D1
:101A0000C11768B14840401AB0FA80F29040D21C29
:101A1000C907C2F5846241EA025202EBD0214005B7
:101A20007047000070B44FF0004591EA030F40F199
:101A3000B5816B40841A71EB030603D2001BB141E0
:101A4000121973414FF4001C1CEB410F34BF7CEBA7
:101A5000430442E00C0DA4EB1356352E4FDC45EA4F
:101A6000C323DB0A45EAC121C912B6F120050DDD09
:101A700063FA05F6EB4086EA0305124218BF45F00B
:101A80000105C01851F100010CD213E062FA06F50D
:101A9000F2405540F3415A40B340F3405A40801859
:101AA000594107D349085FEA30005FEA350528BF8E
:101AB00045F0010501F58011420875F1004250F131
:101AC000000041EB04514E0016F5001F70BC38BFFA
:101AD00070470020090D090570471CEB410F10D21B
:101AE00052EA43060BD0BCEB410F05D80C0DAB43BB
:101AF000661E342EB6DD02E0AB438018594170BC3F
:101B0000704770BC70470000F0B540F2FF7581EA85
:101B1000030C0CF0004C15EA11541DBF15EA1357C5
:101B2000AC42AF42E5E0BC41C1F31301C3F3130380
:101B3000801A994143F4801304D2641E4000494145
:101B400080185941C90241EA5051B1FBF3F603FB39
:101B50001611A2FB0675D7EBC020A94102D2761E52
:101B600080185941C90241EA5051B1FBF3FE03FB11
:101B70001E11A2FB0E75D7EBC020A94103D2AEF116
:101B8000010E80185941890241EA9051760546EAD2
:101B90008E2EB1FBF3F603FB1611A2FB0675D7EBF5
:101BA0008020A94102D2761E80185941C90241EA1B
:101BB00050514EEA060EB1FBF3F603FB1611A2FBE1
:101BC0000675D7EBC020A94102D2761E8018594174
:101BD000C90241EA5051B1FBF3F703FB1711A2FB15
:101BE0000735D3EBC020A94167F100070CBF0042C5
:101BF00047F0010766F3D5274FEA1E31B80814F500
:101C0000806412DDBD0775F1004250EB0E5051EBC0
:101C1000045111F5801F5CBF41EA0C01F0BD4CF08E
:101C20007F6141F0E0410020F0BDBD076D0840EA52
:101C30000E5041F48011D4F10104B4F120060ADA07
:101C4000C4F120060200E04001FA06F3E140184327
:101C5000B24015430EE0342C13DCC6F1200445EAF3
:101C600040056D0820FA06F2154321FA06F0A1405E
:101C70000D43002175F1004250F1000051EB0C01C1
:101C8000F0BD00205FEA0C01F0BDCFB992185B41B6
:101C9000B3FA83F704BFB2FA82F6BF190B3FB7F16C
:101CA00020062FBF02FA06F3BB40C7F1200622FA36
:101CB00006F638BF3343BA401CB1E419641E33E75B
:101CC0007F4231F00041B1FA81F404BFB0FA80F6EE
:101CD000A4190B3CB4F120062FBF00FA06F1A14075
:101CE000C4F1200620FA06F638BF3143A0403C1B61
:101CF0001AE7AC421ABF05EA1357AF4212E050EAA6
:101D000041061CBF52EA4306BFE750EA410730468E
:101D100061461CBF41EA0551F0BD52EA430C08BFC1
:101D2000C143F0BD00204FF4001616EB410F98BFE1
:101D300016EB430F08BF16EB410F24BFC14305E06C
:101D400016EB430F0CBF61464CEA0551F0BD000095
:101D5000400D491840EA81200CD2490DA1F580615F
:101D6000491C40F0004005DBD1F11F0154BFC840C1
:101D7000C017704700207047014648B1B0FA80F1A3
:101D80008840C91CC1F58461090501EBD0214005DB
:101D90007047012000F0B8B870470000841A71EB5A
:101DA000030604D26E40001BB141121973414FF477
:101DB000001C1CEB410F34BF7CEB430683E00C0D91
:101DC000A4EB1356362E00F37C80012E45EAC32384
:101DD00041DC43EA525312BFD20292025B0824054F
:101DE00045EAC12141EA5051D2EBC020994125D4A6
:101DF00007D1B0FA80F610FA06F162D00020203642
:101E000008E0B1FA81F6B140C6F1200220FA02F2F0
:101E10001143B0404FEAF474B4EB465434F0010679
:101E20004FEA74040AD8D6F50016760D04F0004483
:101E3000F04061FA06F25040F1404840C00A40EAE2
:101E4000415021F0004128BF5FEA500550F10000E9
:101E500044EBD12135E0DB0A45EAC121C90AB6F1DC
:101E600020050EDD42EA0242120CC5F1200603FAFB
:101E700006F6EB4042EA06056D42984161F1000129
:101E80000DE062FA06F5F240554063FA06FC82EA7C
:101E90000C02F3405A406D42904161EB030111F492
:101EA000801F05D1641E620502D06D00404149418A
:101EB00021F48011430875F1004350F1000041EB1B
:101EC000045170BC70471CEB410F15D223F0004346
:101ED00052EA43060BD04FEA4C0CBCEB410F04D83E
:101EE0000C0D661E342EB7DDEBE7801A994150EADF
:101EF000410608BF0021E4E708BF1CEB430F28BFE1
:101F00006FF00001DDE7000080B500F007F8024A3D
:101F100011001820ABBEFBE72600020080B500F0E0
:101F200054F802000023DB431068984204D01100EB
:101F30000220ABBE002010605068984204D0111DF2
:101F40000220ABBE0020506001BD0000F0B583B0A0
:101F5000040000F03AF8A10047183D680026F64357
:101F6000B54216D100F01AF83D68B5420FD100BF56
:101F700009A00090002C01D1002000E00420019075
:101F80000320029069460120ABBE05003D6000F0D1
:101F900014F8280003B0F0BD3A7474000C48012115
:101FA000BFF35F8FD0E84F3FC0E8421F002AF9D14E
:101FB000BFF35F8F002BF3D170470548BFF35F8FEE
:101FC00000210170BFF35F8F704702487047000027
:101FD000CD470020B40100202DE9F84306461746FE
:101FE00084B088469946B80000F0AAFB05001AD0D4
:101FF000542000F0A5FB040012D00D990C98256325
:10200000002203920191009002944B463A464146C9
:10201000304600F00DF8204600F046F8012004E0BC
:10202000284600F016FC4FF0FF3005B0BDE8F08305
:102030002DE9F0470A9E8146306B00EB8202101FAB
:10204000C0084FEAC00A00228C5CB01880F8344007
:10205000885C10B1521C102AF6D3089D002086F827
:102060004300062D099C88BF062506F14407F5624A
:102070003D6078609846301D00F049FC06F118007C
:1020800000F045FC3661C5F10705B56176620020B8
:10209000B860387342464946504600F073FC3060E1
:1020A00004B12660BDE8F0872DE9F04100F064F846
:1020B000DFF80856DFF80886E86C401CE864142650
:1020C000A86A28BBAC62E86C012827D1002706FB70
:1020D00007F0404400F00EFC7F1C072FF7D305F1FA
:1020E000740000F007FC05F18807384600F002FC98
:1020F000284600F0FFFB05F1140000F0FBFB05F1A2
:10210000380000F0F7FB05F17400E8622F6305E08A
:10211000A86D18B900F037F828BFAC62A86E401C53
:10212000A8660122E06A696D8240114369654643F1
:10213000211D08EB060000F0EDFB00F0A6FCA86DE9
:1021400008B100F0ACFABDE8F08180B588B1DFF8E5
:10215000DC25116F21B100F012F800F041F9FEE723
:10216000116F491C1167002100F0ACFA00F045F82E
:1021700008B900F030F901BD044600F06DBC5020F4
:1021800080F311887047E06AA96ACA6A9042704772
:10219000211D14204243981870473EB5DFF88C4546
:1021A0000FF2945104F19C0001900025009500234A
:1021B00080220FF22130FFF70FFF502101280ED1AE
:1021C00081F3118800F00CF94FF0FF30E066012137
:1021D000A1652565BDE8374000F0F6BB37BD10F1BD
:1021E000010FFBD181F3118800F0FAF8FEE7DFF868
:1021F0003C05016F491C0167704770B5DFF82C651D
:10220000306F0024002528B9502181F3118800F097
:10221000E7F8FEE700F020FC306F401E3067306FBB
:10222000002836D1F06CD8B933E0F068C46800F00B
:1022300031F800F0D7F9E06A716DDFF8F43401226B
:1022400082401143716514225043211D184400F04F
:1022500061FBE06AB16ACA6A904224BF012131661B
:1022600030680028E1D10CB100F069F9F46D3CB19F
:1022700000F014F808B101203066641EF8D1F5654D
:10228000306E30B1DFF8AC144FF08050012500F013
:10229000A6F8FDE104F1180000F062BB2DE9F84357
:1022A000DFF88874386F002600284FD13C6D641C1D
:1022B0003C6511D1F96A086828B1502181F3118871
:1022C00000F08EF8FEE7F86A396BF9623863786ED1
:1022D000401C786600F033F9F86EDFF854948442BD
:1022E0004FF0140825D31AE0281D00F039FBA86A26
:1022F00018B105F1180000F033FBE86A796D01228E
:1023000082401143796508FB00F0291D484400F024
:1023100001FBE86AB96ACA6A904228BF0126F96AD5
:10232000086880B1F86AC168CD6868688442DBD209
:10233000F866B86AC16A08FB01F059F80020022A61
:1023400007D3012605E04FF0FF30F1E7F86D401CA0
:10235000F865386E00B101269EE1DFF86023106F4A
:1023600010B101211166704710661421506DB0FA4A
:1023700080F3C3F11F034B43DFF8B413C85838B9D7
:10238000502181F31188BFF34F8FBFF36F8FFEE7AA
:10239000C81800F10803416849684160994204BFC8
:1023A000496841604068C1689162704710B50C4649
:1023B00020B9FFF7E4FE00F013F8FEE7DFF8FC2297
:1023C000936A03F1180100F0B2FA2046BDE810400C
:1023D000FFE7012176E1DFF85C134FF080500860E1
:1023E000BFF34F8FBFF36F8F704738B5C068C468B5
:1023F00024B9FFF7C4FEFFF7F3FFFEE7FFF74AFF3C
:10240000DFF8B852286F60B900F0ECF8E26A686D46
:10241000DFF81C330121914008436865FFF7B8FEDF
:1024200002E004F11801284600F074FA00F004F804
:1024300000D206E0002032BDA86AC16AE06A81428B
:1024400070470120286632BD38B9502080F31188CA
:10245000BFF34F8FBFF36F8FFEE7DFF8D0124A6EE6
:102460000260096D4160704770B504460D4650200A
:1024700024B980F31188FFF7B3FFFEE725B980F395
:102480001188FFF7ADFFFEE700F0E6FADFF89C02E7
:10249000016D2A6812F1010F0FD06368406E266843
:1024A000B04201D099420AD2C81A904207D2511ABA
:1024B000591829602046FFF7C7FF002400E00124D7
:1024C00000F0E3FA204670BDDFF8601201200866D4
:1024D0007047000070B5DFF8E841DFF850521BE0AC
:1024E000286F401C28676869461EB641FFF785FEC5
:1024F000F60F8EB900F0B0FA286AC668301D00F0F9
:102500002FFAE86C401EE864686B401E686300F0B8
:10251000BCFA304600F009F8686B0028E0D1216869
:102520000129F9D9FFF757FFF6E710B50446206BEC
:1025300000F08FF92046BDE8104000F08AB9DFF8BE
:10254000EC11CA6A106810B94FF0FF3203E0C86A94
:10255000C268D0684268CA667047DFF8D011886DDB
:1025600008B901207047086F08B9022070470020A1
:1025700070472DE9F041040032D0504DFFF703FEC3
:102580002ED2A069002804D4A86AC16AC1F107014B
:10259000A1611427E16ADFF89881606979434144B9
:1025A00088421AD100F01EF80126002801BFE16A16
:1025B000794358F80100002800F058F8A86AC06A6A
:1025C000E0628640696D0E436E654743211D08EB4E
:1025D0000700BDE8F04100F09DB9A86AC16AE16258
:1025E000BDE8F081201D00F0BBB92DE9F0410446A3
:1025F0000021002C37D0314DA86A5022844204D0EB
:1026000082F31188FFF7ECFEFEE7A06C20B982F39D
:102610001188FFF7E5FEFEE7E26A636C401E9A420E
:10262000A06420D0F8B9FFF7DDFF01261427DFF8FA
:102630000081002801BFE16A794358F801000028B1
:1026400000F014F8606CE062C0F10700A061E06A7D
:10265000696D86400E4347436E65211D08EB0700F8
:1026600000F058F901210846BDE8F08105D1686DF8
:10267000E16A06FA01F1884368657047DFF8AC103B
:10268000886A18B1886A826C521C8264886A7047B2
:1026900000F0FBF9284670BD3046BDE8F283A86A19
:1026A000C16AE06A814207D2224A4FF0805111602C
:1026B000BFF34F8FBFF36F8F70470000344500208A
:1026C000D4450020F8B5194D2F6D0C46A96A064671
:1026D000081D00F045F930B9A86A696DC06A012289
:1026E00082409143696516F1010F08D13CB1A86A97
:1026F000011D05F13800BDE8F44000F00BB9A86AEF
:10270000F6194660BE42A86A05D2011D286BBDE8D5
:10271000F44000F00CB9011DE86A00F008F9E86E19
:10272000864238BFEE66F1BD00000000344500204F
:10273000D445002004ED00E049444C450000000071
:102740002DE9F8430446FFF752FD694FB8684FF092
:102750000009002508BB07F1180307F1180113F061
:10276000070F4FF470500A4605D0CA1DD208D20098
:10277000C2F57050081880180838C008C0003A60C8
:102780007D60B86045600560831A536010605068D2
:102790003861F8604FF0004078614FF05008786978
:1027A000044233D194B3083414F0070F1FBF04F16F
:1027B000080004F00704041B14F0070F02D000F017
:1027C00041F8FEE714B3F868A0421FD33E683946CB
:1027D0007068A04223D2306800281CBF31460646EC
:1027E000F6D11CE0301D02517460084600F05BF821
:1027F0007168F8683A69401AF860904238BF3861E9
:10280000786901437160356009F00705FFF7F5FC51
:1028100015B100F017F8FEE74846BDE8F283B86846
:102820008642F3D00A683068086002F108097268CD
:10283000121B112ADCD3311911F00700D2D000F09D
:1028400001F8FEE788F31188BFF34F8FBFF36F8F56
:102850007047002800D1704738B5A0F10804244D16
:1028600061686A695023114202D100F015F8FEE751
:10287000206810B100F010F8FEE791436160FFF7A7
:10288000B6FCE96860684118E960204600F00BF882
:10289000BDE83140FFF7B1BC83F31188BFF34F8F20
:1028A000BFF36F8F704730B511490A4600E01A46F2
:1028B00013688342FBD35368D418844203D1406821
:1028C000C3185360104643681468C518A54208D160
:1028D00089688C4204D06168CB184360246800E0AA
:1028E0000C460460824218BF106030BD000000003A
:1028F000BC0100204FF0FF3200F10801826041600E
:10290000C16000F1080202610021016070470021EE
:102910000161704710B542684A6093688B609468A3
:102920006160916008610168491C016010BD30B5AB
:102930000A6812F1010F08BF036907D000F108030C
:1029400000E023465C682568AA42FAD25A684A60C9
:1029500091608B60596008610168491C016030BD5D
:102960004368016982689A60836842685A604A686D
:10297000824204BF83684B60002202610868401EE7
:1029800008607047490810B54900A0F120034FF0D6
:10299000807499611A60DC616FF002020FF20D0120
:1029A000596140F8242D203810BD000055494A686F
:1029B000502012F1010F80F31188BFF34F8FBFF346
:1029C0006F8F00D0FEE7FEE73EB54F494F4B0A68D8
:1029D00050209A4202D100F078F8FEE70A684C4B8A
:1029E0009A4202D100F071F8FEE74A4A1378019347
:1029F000FF2414701578434C8DF800509DF80000AA
:102A000000F050002070072005E09DF800305B00CA
:102A1000401E8DF800309DF800301D06F5D40002F0
:102A200000F4E060A060019810700A6A42F470023D
:102A30000A62086A40F07040086200F07FF80020E7
:102A4000606000F0D1F83448016841F04041016015
:102A500000F0BEF800203EBD502080F31188BFF387
:102A60004F8FBFF36F8F27494A68521C012A4A6073
:102A70000AD12A490A68130606D080F31188BFF3E9
:102A80004F8FBFF36F8FFEE770471E49486838B914
:102A9000502080F31188BFF34F8FBFF36F8FFEE795
:102AA000401E486008BF80F31188704780B55020F1
:102AB00000F00BF8FFF7F2FB18B118494FF0805007
:102AC0000860002282F3118801BD80F31188BFF3F2
:102AD0004F8FBFF36F8F704710B5EFF30580502114
:102AE0001028084A05D30E4B185C1478A04200F059
:102AF0001BF890680B4A136803F4E063984200F0F7
:102B000013F810BD0000002000ED00E071C20F417D
:102B100070C20F4100E400E034EF00E004ED00E09B
:102B2000F0E300E00CED00E006D281F31188BFF382
:102B30004F8FBFF36F8FFEE77047000005490648CF
:102B40000A684FF47A73B2FBF3F35B1E436007210C
:102B5000016070471800002010E000E0EFF30980EA
:102B6000BFF36F8F244B1A681EF0100F08BF20EDC3
:102B7000108A20E9F04F106008B44FF0500080F345
:102B80001188BFF34F8FBFF36F8FFFF7E6FB4FF056
:102B9000000080F3118808BC19680868B0E8F04F9D
:102BA0001EF0100F08BFB0EC108A80F30988BFF345
:102BB0006F8F7047104B19680868B0E8F04F80F3CA
:102BC0000988BFF36F8F4FF0000080F311887047C2
:102BD0000A480068006880F3088862B661B6BFF3EF
:102BE0004F8FBFF36F8F00DFDFF81400016841F4EF
:102BF00070010160704700005C45002008ED00E0B6
:102C000088ED00E010B504008AB008BF01201ED096
:102C1000032084F89102204600F086FB206800F033
:102C2000F0FC83B000F015F80EBC206800F0AEFC9C
:102C30002068012100F0EBFC83B000F00AF80EBC24
:102C4000206800F05CFD012084F8910200200AB0A9
:102C500010BD211D68463422FEF780BBFEB5064636
:102C600096F89002012801D10220FEBD0A98099C25
:102C7000089D012786F890728E46282717FB0EFEC6
:102C800006EB0E0702F07F0C07F8383F4FEAD21E22
:102C900038817970FC7187F802C087F803E03D71D4
:102CA000029001940095306800F0F4FD002186F850
:102CB0009012FEBD10B500F0FAF801D1022010BD4F
:102CC00000F0FAF800F0EDFEEDE00000F8B50E4679
:102CD000282466430644069D06F13907002DBA7084
:102CE000BB7107BF03247C7202247C72089C032BF7
:102CF00006F1440E23D8DFE803F002200C1C012D5E
:102D000008BF002A1BD1220004D101228EF80D2019
:102D100000E052BB9EF80D20002A07BF00237B7203
:102D200002227A729EF81820022A08D0099A3A7173
:102D300005E0D2B99EF80D20DAB900237B72079A1C
:102D4000CEF80020CEF8044000228EF81820CEF8ED
:102D5000082039708EF8192006F1380102690068E0
:102D6000BDE8F840D2B200F0F7BD9EF80C20002A72
:102D7000E3D00223E2E7F8B504460026256828469A
:102D800000F0A4FC01287CD100F07CF8002878D069
:102D900000F078F8800203D522684FF400115161E9
:102DA00000F070F8C00203D522684FF48011516121
:102DB00000F068F8400103D522684FF0806151614E
:102DC00000F060F8800702D522680221516100F00E
:102DD00059F8800010D505F58860016821F02E01B2
:102DE0000160204600F0E1FA2068012100F0F6FCC5
:102DF00021684FF00050486100F044F8C00144BF22
:102E0000204600F039FA00F03DF8000705D52046CD
:102E100000F0C3FA21680820486100F033F880010F
:102E20001ED5206800F038FE0746A068864213D2FF
:102E300027FA06F0C1070DD505EB461000F5A06096
:102E400001680804F1B2204602D400F026F901E03E
:102E500000F056F8761CE8E721684FF000704861F2
:102E600000F010F8C0060CD52068816921F010012F
:102E70008161204600F0CAF92068816941F01001A3
:102E80008161F1BD206800F01CBC10B500F00FF8A6
:102E900001D1022010BD00F00FF800F0AEFB206859
:102EA000012100F0C9FC002084F8900210BD044606
:102EB00094F8900201287047012084F8900220685D
:102EC000704710B5FFF7F3FF01D1022010BDFFF7E7
:102ED000F3FF00F03DFEE6E7006800F097BC282213
:102EE0005143084490F85C0070472822514308443D
:102EF000C06C7047006800F0C8BC006800F0BBBC44
:102F00002DE9F041054688462C6804EB411404F590
:102F1000A06442462820A1684243AE18480706F143
:102F2000480704D50421A16000F0A3F81EE0A068C2
:102F3000810648BF202018D4A06801070AD500F0F8
:102F400098F8052179751020A0600822A26000F091
:102F500099F80BE0A068410508D500F08FF8102023
:102F6000A060082179754FF48060A060A068810599
:102F700004D500F083F84FF4007061E0A068C10749
:102F800029D5286928B139682069C0F31200091AC7
:102F900079600120002178753961A06096F83F00C2
:102FA000002818BF022804D100F068F81020A060A3
:102FB0000CE003280AD1206840F000502060012175
:102FC000397501224146284600F0F3F9387A80F03D
:102FD000010038724BE0A068810724D5E06820F03A
:102FE0000200E060787D012814BF0528387511D0F3
:102FF000062818BF08280DD13869411C04283961FA
:1030000004D3002004213861397501E002203875AD
:1030100000F03CF80220A06041463A7D2846BDE819
:10302000F04100F0C6B9A06801060BD500F021F808
:10303000062138697975401C386100F023F880203A
:10304000A06014E0A068C10611D596F83F000328DF
:1030500001D100F013F8032078751021A16096F8D3
:103060003F00002818BF022801D100F00FF8BDE88A
:10307000F081E06840F00200E0607047E06840F0F6
:103080000200E0604146286800F00BBD206820F097
:10309000804040F000402060704770B5046804EB49
:1030A000411404F5A064A268530706D50420A0606B
:1030B000E16841F00201E16070BD0B4628225343F4
:1030C000C21802F15805A3683D329E060BD5202395
:1030D000A3601278012A05D104236B7100F08FF8E8
:1030E0000221297170BDA3685E0607D504226A71AA
:1030F00000232B6000F083F8402006E0A3689E05C3
:1031000005D500F07CF84FF40070A06070BDA36896
:10311000DE0706D500F06CF800F075F80120A0601D
:103120002CE0A3681E0709D50822A260E36843F0DB
:103130000203E36000F067F805201FE0A368DE06E5
:1031400007D500F055F800F05EF8032068711021F3
:1031500007E0A3681E0606D500F051F80620687146
:103160008021A16070BDA3685E0509D500F047F815
:103170001020A0604FF48061A1600820687170BDCC
:10318000A3689E0733D5E36823F00203E3606B79FD
:10319000012B08D12B719678022E21D1137D83F05B
:1031A000010313751CE0032B18D0042B04D1022358
:1031B0002B710026167013E0052B08BF05220ED0D8
:1031C000062B18BF082B0BD12A68531C042A2B602E
:1031D00004D3002204232A602B7101E002222A7109
:1031E0000223A3602A79BDE8704000F0E2B870BD08
:1031F00000222A60E36843F00203E3607047E2685C
:1032000042F00202E260006800F04BBCF8B50368CF
:10321000196A01F00F06C1F30A14C1F343410229F0
:103220001D4624D11CB3282111FB06F14718796CE7
:10323000E9B12246184600F02CFA786CF96C20446B
:1032400005EB46157864641805F5A065FC642869EB
:10325000084908420BD0286820F0804040F0004028
:10326000286097F8500080F0010087F85000F1BD09
:10327000000000000000F81F7CB5054629680E46D6
:1032800006F588642268019223680093009820F074
:103290002E000090019882070DD50198C20706D52F
:1032A0008B6923F000538B61284600F07AF8009870
:1032B00040F002000090019801072AD5009840F0E4
:1032C00008000090019841071AD5A86902280BD17F
:1032D0002868019901F4C021B1F5802F0CBF0221AB
:1032E000012100F07BFA07E0E868032804D106F525
:1032F00080664EF660217160284600F052F808E0C2
:10330000206820F02E0020602868816941F000517B
:1033100081610198810603D5009840F0200000905B
:103320000098206073BD00000068B0F1A04F00D08D
:10333000704710B586B04FF40071019100220292DF
:10334000039201A9314C204600F040FC4FF4E052BA
:103350000192022100220392049202910A22059214
:1033600001A9204600F032FC2948016841F08001A3
:10337000016000220092016941F480410161052150
:10338000006900F4804000900098432000F024FD84
:10339000432000F03EFD06B010BDD0F8940200F0CE
:1033A0002DBFD0F8940200F037BFD0F8940200F09F
:1033B0004CBFD0F8940200F07BBF000038B5044643
:1033C00004F56F70017801291ED1124DC5F89442A1
:1033D00045604FF0A04028600821A960002003222A
:1033E00028610221E861EA60A9612846FFF70AFC2A
:1033F00018B1E22152A001F06BF92846FFF77AFDDF
:103400000146204600F0F7FE002032BD00000240D9
:1034100034380240A441002010B5D0F8C003FFF7B3
:1034200034FD002418B102280CBF012402242046D8
:1034300010BD10B5D0F8C003FFF743FD002418B14C
:1034400002280CBF01240224204610BD10B5D0F87C
:10345000C003FFF752FD012418B1022808BF02245F
:1034600000E00024204610BD10B5D0F8C003FFF7DF
:1034700033FD002418B102280CBF01240224204689
:1034800010BDD0F8C003FFF730BDFEB5089E099D02
:103490000A9C0294019500960027D0F8C003FFF71C
:1034A000DDFB18B102280CBF012702273846FEBDFC
:1034B00010B5D0F8C003FFF7FDFB002418B10228B7
:1034C0000CBF01240224204610BDF8B584B00A9E2A
:1034D000DDF82CC00C9D0D9C03940295CDF804C022
:1034E00000960027D0F8C003FFF7F0FB18B10228C0
:1034F0000CBF01270227384605B0F0BDD0F8C00345
:10350000FFF7EDBC80B590F8BC03012804BF084666
:1035100001F0FAF8C82001F001F9002002BDD0F84E
:10352000C00328235943014411F83B0F002814BF5E
:103530004A758A750020704701F0F0B8000000005D
:103540004C3A5C446F63756D656E74735C47697467
:103550004875625C53544D3332463430372D4661E2
:103560006D696C696172697A6174696F6E5C4672CB
:10357000656552544F532044656D6F5C5372635CB4
:10358000757362685F636F6E662E63000EB418B564
:1035900004460898012817D1A06B20F48030A0635E
:1035A000E168DFF834020140E160E16821F4401194
:1035B000E1600F98012803D1E06840F48010E060DA
:1035C000204600F087F809E0E06840F04000E06045
:1035D000204600F07FF84FF48030A0630698012861
:1035E00007D1A06840F00600A060A06840F020006D
:1035F000A060002012BC5DF810FB816841F0010161
:1036000002E081684908490081600020704780B568
:10361000C26822F0C0420129C26003D1C16841F0F2
:10362000005103E019B9C16841F08041C160322006
:1036300000F043B8890141F020010161DFF8E8148E
:10364000491E04D002699306FAD400207047032073
:10365000704710210161DFF8D014491E04D00269BF
:10366000D306FAD40020704703207047B8B5059CF4
:10367000002564B9DB1C07E000EB023751F8044B6E
:1036800007F580576D1C3C60B5EB930FF4D3002019
:10369000B2BD30B50023D21C00F5805403E025688C
:1036A00041F8045B5B1CB3EB920FF8D3084630BDC6
:1036B0000160002070474160032001F02FF80020D6
:1036C00002BD01464869896908407047406900F0B9
:1036D00001007047DFF850241146491E0DD00369E0
:1036E000002BFAD5016941F001010161521E04D09D
:1036F0000169CB07FAD400207047032070470EB44D
:103700005CB5044604F5606100200860A26B22F4F9
:103710008022A263A06B20F40020A063A06B40F481
:103720000010A06304F580600799032907D1B4F164
:10373000A04F04D0016841F00401016003E0026879
:1037400022F00402026010212046FFF773FF20469A
:10375000FFF77FFF00204FF0FF36002206E004EB6A
:10376000401101F5A061401C8E60CA600699884234
:10377000F5D30121204600F05FF8C82000F0CEFF0D
:103780000020A061B4F1A04F66610CD1DFF8A00366
:10379000DFF8A023802101604260DFF89C13DFF88E
:1037A0009C03086009E04FF400726262DFF8900346
:1037B000DFF89013A062C4F80011089818B9A06946
:1037C00040F01000A061A169DFF87C030143A16112
:1037D000002056BC5DF810FBBFFFBDFF10B500F523
:1037E000806001F00304026892089200026003689E
:1037F00023430129036008BF4BF6803103D002291F
:1038000002D141F270714160002010BD1CB500F57D
:103810008864206800900A20009921F02E01009110
:10382000009941F48071216000F078FF009820F445
:1038300080702060002016BD00F5886081B00268AD
:103840000092009B23F02E030093009AD30407D428
:10385000012905D1009941F480510160009807E0E9
:10386000009AD30404D519B9009921F4805101605C
:10387000002001B0704700F5886081B000680090BA
:103880000098C0F3414001B0704700F58060806847
:1038900080B27047F8B500EB4116079C06F5A066AC
:1038A0004FF0FF35032CB56025D8DFE804F0021B8C
:1038B000021240F29D45F560150603D5F56845F402
:1038C000807517E0B0F1A04F15D0F56845F06005A0
:1038D00010E040F29D65F56015060CD5F56845F4DD
:1038E000807507E040F22525F560150603D5F568DB
:1038F00045F4C075F560069D00F580674FF0010E38
:10390000D7F818C00EFA01F141EA0C01B9618169DA
:1039100041F000718161D109022D0CBF0125002504
:103920009B05D20203F0FE5302F4F0421A430898BA
:1039300042EAC132A10442EA454201F440210A436D
:10394000C0F30A000243032C326003D1306840F018
:10395000005030600020F2BDF8B5B0F1A04F17D094
:103960000B79ABB9130006D14B79012B10D14978F3
:1039700000F0CEF882E0012A0AD14B7800EB431325
:1039800003F5A063DD6825F06005DD6000234B7161
:103990000B697BB10D892E46F3185B1EB3FBF6F65F
:1039A000B6B240F201139E4205DB2D024FF4807641
:1039B0000D6100E00126CB7813B10B8973430B61D5
:1039C0004B785A4F00EB43150B69C3F3120307EA18
:1039D000C6478E7A760705F5A0653B4306F0C046DC
:1039E00033432B61130006D04B7800EB431505F5EC
:1039F000A065CB686B6100F580639D6800F040F8BE
:103A000005F00105376827F00057376085F001059C
:103A100000F036F8376847EA457737604D7800EBB5
:103A2000451404F5A064256825F0804545F000455F
:103A3000256004BFCA78002A20D10A69F2B1CC7986
:103A4000032C13D8DFE804F0020A020AC36A00F06C
:103A50001DF80BD2826942F0200206E01B6900F0DB
:103A600015F803D2826942F08062826100220092DE
:103A70004A780B69C9689BB2FFF7F8FD0020F2BDD8
:103A80004E7800EB461606F5A0667047D21C9BB236
:103A90009203B3EB124F704700F58060406980B22B
:103AA0007047024610B502EB411303F5A06340F2E4
:103AB000E9301968C1F3814100291EBF1968C1F3BB
:103AC0008141022907D1196841F080411960D26A09
:103AD00012F47F0F07E0196841F08041196002F588
:103AE000806421690A040DD1196821F00041196030
:103AF0001A6842F000421A60401E07D01968002977
:103B0000FAD403E0186840F000401860002010BDAF
:103B100000EB411000F5A0600C490161016821F043
:103B2000804141F00041C3E5410D03000000F81F52
:103B3000240000508000600000010050E0004000C0
:103B4000000200010003E000080020A3000008803C
:103B500070B504461021A26852085200A2600025E8
:103B6000FFF768FD2046FFF774FD002004EB4012CC
:103B700002F5A062401C136823F0802343F08043C9
:103B800010281360F2DB002004EB401202F5A06263
:103B9000136823F4004343F04043136040F2E933D9
:103BA0006D1C9D4202D21668002EF9D4401C1028CC
:103BB000EADB04F580614FF0FF3048616061A06886
:103BC00040F00100A060002070BD00002DE9F84722
:103BD00002460B46002468480F2101271D68A740B4
:103BE00007EA0508B84540F0BD805D68022D18BFA2
:103BF000122D4FEA840911D1E50802EB850C09F07A
:103C00001C05DCF820E0D3F810A001FA05F62EEA36
:103C100006060AFA05F53543CCF820504FEA440C65
:103C20000326156806FA0CF66FEA060E1E7906F0F2
:103C300003060EEA050506FA0CF6354315605D68C5
:103C4000012D18BF022D03D0112D18BF122D10D138
:103C50009568DE680EEA050506FA0CF635439560B0
:103C6000556825EA07075D68C5F30015A5402F4391
:103C70005760D7680EEA07059F6807FA0CF63543C8
:103C8000D5605D68EF006DD50025009509F00C0941
:103C900007683A4E47F48047076001FA09FE056855
:103CA00005F480450095009FA70856F8275025EA9F
:103CB0000E0E334DAA4208BF002522D0314DAA4234
:103CC00008BF01251DD0304DAA4208BF022518D0DB
:103CD0002E4DAA4208BF032513D02D4DAA4208BF7E
:103CE00004250ED02B4DAA4208BF052509D02A4D28
:103CF000AA4208BF062504D0284DAA420CBF0725BA
:103D0000082505FA09F545EA0E0546F827506FEA39
:103D10000807234E356807EA050C5D68ED0348BFC8
:103D200048EA0C0CC6F800C0756807EA050C5D6827
:103D3000AD0348BF48EA0C0CC6F804C0B56807EAF2
:103D4000050C5D68ED0248BF48EA0C0CC6F808C0D7
:103D5000F56807EA050C5F68BD0248BF48EA0C0C2D
:103D6000C6F80CC0641C0F2C7FF637AFBDE8F18796
:103D700002B90904816170474438024008380140A3
:103D8000000002400004024000080240000C024013
:103D9000001002400014024000180240001C0240C3
:103DA000003C01400901020006D52F4A00F00F0037
:103DB000104400F8041C70472C4B195470472C4BCE
:103DC00019684FF6FF020002114000F4E06008435A
:103DD000284908431860704738B5254B1C68C4F360
:103DE0000223C3F10704052C28BF04241D1D072D41
:103DF00034BF0023DB1E012505FA04F4641E2140B4
:103E0000994005FA03F35B1E1A401143BDE83440A4
:103E1000C8E7012200F01F01174BFFE78A40400965
:103E200043F82020704710B5401EB0F1807F01D3C9
:103E3000012010BD114C60600F214FF0FF30FFF7E3
:103E4000B1FF0021A16007202060002010BD0428E0
:103E50000A4904D1086840F00400086070470A6805
:103E600022F004020A60704718ED00E000E400E070
:103E70000CED00E00000FA0500E100E010E000E0D9
:103E800078B5040087B00E4608BF022027D004F59D
:103E90006F7504F55D702A70002101604160204655
:103EA00000F01FF830000FF21C4018BFAE60D0E9E0
:103EB0000023CDE900230021684600F076FCE8608D
:103EC000142202A80FF20441FDF748FA214602A885
:103ED00000F043FC28612046FFF770FA002008B08C
:103EE00070BD10B504463C2104F55F7000F0DCFCA9
:103EF0004FF4007104F58E7000F0D6FC00202070A5
:103F000001226070A270C4F8B80322764020A0712C
:103F1000002104F547706176002201210270417092
:103F2000002010BD10B50346002051B1D3F878230E
:103F30003AB9012403EB8202C3F87843C2F8701344
:103F400010BD022010BD10B5024602F21F32002043
:103F5000D47DA14201D2117010BD022010BDF0B578
:103F6000002465B21A2615FB06F5054405F54F75C4
:103F70006F798F4218BFFF2909D1AE79964218BFD9
:103F8000FF2A04D1ED799D4218BFFF2B05D0641C98
:103F900065B2022DE5DBFF20F0BDE0B2F0BD10B54B
:103FA0000446FFF739FA01212046FFF7ABFA00205B
:103FB00010BD00007FB502218DF80010044604F505
:103FC000477621780A2904F55C753AD8DFE801F0D4
:103FD000068F12868F366D434A518100B0780028D3
:103FE00036D001212170C820FFF7A6FA2046FFF73E
:103FF0003BFA20E06420FFF79FFA2046FFF726FAFD
:104000007070002105202070204600F061FC607176
:104010008021204600F05CFC0146A079217100223D
:10402000029001928022737800932046337800F04A
:104030003EFC00F0D4F80022012146E000F05AF8DE
:10404000002854D1717DF070012902D10820207020
:104050004DE0072133E06A6D002A48D001219047E6
:1040600008202FE0F17E00F0D3FC00283FD1092189
:1040700025E0A86838B300216960296894F84123D5
:10408000087990420ED1696061B1896820468847FD
:1040900030B90620207003216A6D2046904712E057
:1040A0000C200FE00C2121700DE0696849B109690D
:1040B00088478DF800009DF80000C0B90A212170E2
:1040C00015E00C20207000220521A86D00F072FB85
:1040D0000DE0696859B14969884708E0FFF701FFB9
:1040E000696821B1C96820468847002068600020BF
:1040F00004B070BD7FB50125044604F547766378AA
:10410000072B04F58E7267D8DFE803F004131A3426
:104110003B424B57082100F003FC00285CD1F07AA9
:10412000A071657002900020019071780091337841
:1041300018E0122100F0F4FB00284DD1022037E0F6
:10414000012100F05AFC002846D10220FFF7F4F9C3
:1041500035700321A0796170029000210191012343
:104160007278009280222179204600F0A0FB00F0B6
:1041700036F831E0092100F0E9FB00282CD10420B9
:1041800016E0318B00F0E2FB002825D105200FE07E
:10419000B17C19B1FF2300F0EFFBE8B90620607095
:1041A00014E0F17C31B1FF2300F0E6FBA0B9072059
:1041B000607011E00721617008E0317D29B1FF23B3
:1041C00000F0DAFB40B9002506E000250022D4F813
:1041D000C803052100F0EEFA284604B070BDA079AE
:1041E0000290002101912046727800923378617923
:1041F000002200F05CBBC0F8B813704700F55D7199
:104200004A6C521C4A6403780A2B04D109680029BD
:104210001CBF89690847704710B5017800F57174B3
:1042200039B9012280F81E2322683AB1042190474F
:1042300004E00278012A04BF0221017060680022B4
:10424000012100F0B7FA002010BD38B50446FFF791
:10425000F0F800F019F8617900F017F8002004F583
:10426000717584F81E032A6812B105212046904713
:104270002046FFF7D1F80320207000226868012152
:1042800000F098FA002032BD2179204600F03CBBB6
:104290001FB50446D4F8C8134FF0FF32684600F04B
:1042A000A7FA00981028F5D12046FFF783FEF1E722
:1042B00080B5D0F8C8030022022100F07BFA00206C
:1042C00002BD00000A00000002000000907100081A
:1042D0009142000800000000000000008000000083
:1042E00038B5DFF8A4430FF2EC35284600F030FD76
:1042F000012200F00CF84FF4FA70FDF726FF0022BF
:1043000000F005F84FF4FA70FDF71FFFEDE74FF4EA
:1043100000512046FFF72CBD2DE9F041DFF86883FE
:1043200013E0B4FBF6F006FB104018B9002200F0D1
:1043300010F80127761CB542F3D217B9012200F01C
:1043400008F81420FDF701FF641C00276508022609
:10435000F1E74FF480514046FFF70ABD78B585B0CC
:1043600000F00AFD00F068F800F0C8F8C74CC84833
:10437000C849A065E1650020206600214FF4804017
:10438000A0666166E16621676167A16704F1580074
:1043900000F00CFD00B1FEE704F1AC05BE4828605A
:1043A0000021A9600020E860A861E86128624FF45C
:1043B0000076BA4969616E602E61284600F068FD9A
:1043C00000B1FEE74FF4827161600022B4482060C2
:1043D0000A21A260E26022616261E261226262629D
:1043E000A262E162A661204600F08CFE00B1FEE709
:1043F00002210190009100234FEA0602B7A1A948CB
:10440000FDF7EAFD00200121019000915FF000031B
:104410004FF40062B4A1A448FDF7DEFD4FEA0D00A1
:10442000B4A11422FCF79AFF0021684600F095F928
:10443000A86400F08DF9FEE780B596B000200090EA
:104440004FF480339948016841F0805101600021A8
:10445000006800F080500090009895480091026834
:1044600042F4804202600122006800F48040009023
:104470000AA800990A9202214FF480021091119229
:1044800008214FF4A87212911392022107220B9374
:104490001491159200F078FE00B1FEE7022106911A
:1044A000002207920F204FF4A051059008914FF47D
:1044B00080520992052105A800F0E2FF00B1FEE755
:1044C00001200190C02102220291039201A801F073
:1044D000C1F800B1FEE701F058F84FF47A71B0FB73
:1044E000F1F0FFF7A0FC0420FFF7B1FC00220F2140
:1044F0004FF0FF30FFF770FC17B000BD2DE9F04121
:1045000086B0002005904FF210056A486A4C016899
:104510006A4F5D4EDFF8A88141F01001016002682A
:1045200002F010020592002205990592036843F0FB
:1045300004030360016801F0040100F091F843F006
:1045400080030360016801F0800100F089F843F006
:1045500001030360016801F0010100F081F843F0FC
:1045600002030360016801F00201059105990592BB
:104570000821036843F008030360006800F00800A6
:1045800005902046059BFFF7F3FB012201213846E9
:10459000FFF7EEFB002229463046FFF7E9FB082132
:1045A0000091012200210291039101926946204667
:1045B000FFF70CFB01210091019138460021029187
:1045C000039100F04AF8002202920392082002218F
:1045D00000F03DF83846FFF7F9FA0120002100907D
:1045E00002916946374F38480197FFF7EFFA0420E8
:1045F0000021009001910291404600F02EF8002227
:104600004FF4806002210292039200F020F84046AD
:10461000FFF7DCFA0120019000220292039200953C
:1046200069463046FFF7D2FA202000210090019120
:104630000291304600F011F802210091019700210B
:104640000291204600F009F806B0BDE8F081009024
:10465000019105220492694670476946FFF7B6BA90
:104660000591059905920368704780B501F0ACF893
:10467000012000F089F8FBE700681449884208BF70
:1046800001F0CAB870470000000C02403C44002012
:1046900000540040A0860100003C0040007701006B
:1046A00000300140E1420008194300084038024050
:1046B0000070004030380240001002400008024004
:1046C00000040240000012100000024000100040F0
:1046D000FEE70000666C6173680A0000626C696E38
:1046E0006B206C65640000007072696D6520636109
:1046F0006C630000847100086B4600080000000035
:104700000000000080000000421E9241D20F0121F3
:104710000148FFF72DBB00BF0008024038B5044632
:1047200001F082F814F1010F054602D00448017827
:10473000641801F079F8401BA042FAD331BD00BFE4
:104740000C00002001460020842918BFC81C7047B7
:1047500080B5FDF722FD002002BD3EB504460D46A2
:10476000B4F90800FFF7EEFF02A9019100902B4673
:1047700022692168606892B2FDF72EFC012801D001
:1047800000203EBD02983EBD80B500B90120FDF776
:10479000DCFC002002BDDFF800014FF08051016019
:1047A000BFF34F8FBFF36F8F7047416800680022DF
:1047B00001F07CB803B581B00021009102B901225B
:1047C000EFF3058161B100236A4602A901F030F9D7
:1047D00001280BD1009808B1FFF7DDFF00200EBDC6
:1047E000002302A901F089F80128F7D0FF200EBDAF
:1047F0007FB50546084600230290019300B936E0D4
:1048000000F029F808BF4FF0FF3400F02AF849B152
:1048100003AA01A901F005FA012806BF10200090A3
:10482000009606E000F013F8012807D1102100914E
:1048300009E0039838B1FFF7AEFF04E0002C0CBF8D
:10484000002040200090FFE700F028F87FBD2246BE
:1048500001A901F03CB90024002612F1010F0396D2
:10486000704701D002B11446EFF30581704700F0A4
:1048700001F87FBD80200090694691E81C0085E822
:104880001C00704780B5FDF768FE012803D0BDE825
:104890000140FEF70BB901BD04ED00E0684690E869
:1048A0000E0085E80E007047002201F091BA7FB536
:1048B000089E099D0A9C029401950096FEF7E5FD6D
:1048C000002004B070BD80B5FEF7F2FD002002BDEF
:1048D00030B50246002002F55F73C4B253F824508D
:1048E0002C0406D5401CC3B20B2BF4DB4FF6FF7033
:1048F00008E0C0B24FF6FF7290421CBF41F4004185
:1049000043F82010C0B230BD0B2907DA00EB81005C
:10491000D0F87C13C1F30E01C0F87C13002070475F
:10492000F8B504460D4604F58E76009533464FF4EF
:104930008072002100F046F8070005D12A46314672
:1049400004F5487000F07CF83846F2BD7CB50446AA
:104950000D46009504F11C034FF40072002100F095
:1049600031F8060006D12A4604F11C0104F2323067
:1049700000F092F8304676BDF8B50446154600932F
:104980001E4604F58E7741F440723B46002100F04C
:1049900019F8010004BF7978032912D139788B1EE8
:1049A0009E42A4BF8E1EB6B2002106E06218891C8A
:1049B00092F81E2105F8012B89B2B142F6DB0021E5
:1049C0002970F2BD38B585781446049A012D10D1AE
:1049D00041F08001017444820621417404F47F4453
:1049E000B4F5407F07BF40F20941818200248482F0
:1049F000C2821946BDE83840C2E08278012A06D159
:104A0000002305220374427441828382C38209E039
:104A10008278012A06D1002309220374427441825C
:104A20008382C38200220021AAE08278012A06D173
:104A3000022303744274002343828182C382F1E71C
:104A400030B50B780370082A4C7844708B78CC789A
:104A500003EB042545800B7903714C7944718B7904
:104A60008371CC79C47116DD0A7A4B7A02EB032488
:104A700004818A7ACB7A02EB032444810A7B4B7B44
:104A800002EB032484818A7B8273CB7BC3730A7C11
:104A90000274497C417430BD2DE9FC41044608464E
:104AA0000025017821700A2A437863708178C378E1
:104AB00001EB03216180017921714379637181796F
:104AC000A171C379E371017A217250DB0921ADF83C
:104AD0000010BDF800106288914248D2694600F08B
:104AE00048F841780429F4D11A2212FB05F204EBAC
:104AF000020808F10A0701783970002642787A70B6
:104B00008178B970C278FA700179397142797A7115
:104B10008179B971C279FA71017A39721AE06946FC
:104B200000F027F84178052914D171B208EBC102D1
:104B300002F1140103780B70761C42784A70837876
:104B40008B70C278CA700379427903EB02228A80A3
:104B500082798A7171B23A79914204DABDF8001013
:104B600062889142DBD36D1C6DB2022DB1DBBDE8D2
:104B7000F3810A880378D3180B80017808447047C2
:104B800038B504460125A078012802D002280CD0AF
:104B900019E02076A160A2810223A3700022D4F83C
:104BA000C8030321FFF706FE0DE0204600F00EF8D3
:104BB000050004D101200021A070217603E0022825
:104BC00004BF0120A070284632BD0000F8B50124C2
:104BD000054605F56E76287E401E0A280FD8DFE8C8
:104BE00000F0060F26314550656F7F8B9E006A7975
:104BF00005F11001284601F004F902222A76A1E00D
:104C000000F0A2F80746012F29D1297CE88A01F09B
:104C1000800128B1802908BF032079D0052104E054
:104C2000802901D1092073E00721297671E03068DD
:104C30002B79AA89A968E881284601F0F3F80420B5
:104C400028767FE0297900F080F80746012F0AD105
:104C500009202876002230690321FFF7ABFD042FDD
:104C600070D10B2054E0052FF9D136E000946B7918
:104C7000AA89A968284601F0CFF83068E8810621A2
:104C800038E000F061F8012808BF072040D005286F
:104C900002D10C20287620E0022808BF052037D05A
:104CA00004284FD10B202876022432E02B790022F1
:104CB0000021284601F0B6F83068E881082119E0A3
:104CC000297900F042F8012803D10D20287600242C
:104CD0001FE00428C5D0052834D10324002219E0A0
:104CE000009400226B790021284601F095F8306885
:104CF000E8810A21297625E000F026F80746012FF1
:104D000003D10D200024287603E0022FA7D109202B
:104D10002876002203213069FFF74CFD12E0687EFF
:104D2000401C6876C0B2032805DA2846FEF781FBEE
:104D30002C76AC7006E0F2680621284690470020E9
:104D4000687602242046F2BD69792846FEF7D6BB74
:104D50000EB4C0B5024603A800210190009101AB3A
:104D60000121044878440C30FBF70EFA06BC5DF8CC
:104D700010FB00BFDF23000080B50B48016841F441
:104D800000710160026842F480620260016841F4CF
:104D9000807101600320FFF712F8002001F072F823
:104DA00001F0AEF8002002BD003C024070B50400E6
:104DB00001D1012070BD04F13C05687820B90021C3
:104DC0002970204601F0E3F800F051F800F0E0FB14
:104DD00001462368DFF8B000B1FBF0F25A6060686A
:104DE000DFF8A830984206D34FF4967042434FF450
:104DF0007A76B2FBF6F22068521C026262689A422E
:104E000008D25200B1FBF2F0C0F30B01042913D217
:104E1000042011E0A06820B902EB4202B1FBF2F0DD
:104E200005E019204243B1FBF2F040F48040010557
:104E30000CBF012040F400402168C861E269206A8B
:104E4000216802430A60E0682269216802438A609F
:104E5000A069626921680243CA602021206800F0CD
:104E60000EF80020686069702063A87070BD24206F
:104E7000687020680168490849000160704702684D
:104E800042F001020260704740420F00A18601001B
:104E90002DE9F843044602261027002C4FF00009A4
:104EA0004ED084F841600FF25D11DFF84451616328
:104EB00001F091F82068C1692940C1612268166239
:104EC0002168D1F81C80606902282FD0E06800B109
:104ED0002027A068202898BF7F00012000F03EFC1A
:104EE000014620690A22B0F5007F0ED16369E068AF
:104EF00020B1BF00B1FBF7F14A4303E0FF00B1FB73
:104F0000F7F04243B2FBF3F005E0B1FBF7F04243A8
:104F10006069B2FBF0F0401D0A21B0FBF1F606F02B
:104F20000100361AF603360C4FEA0029B01EFE289F
:104F300008D3606C40F010006064204601F0A8F8CF
:104F4000012052E02069216849EA060606430E6204
:104F50006268A068E1680243A0690A43024342F420
:104F60000062216892B242EA0800C861206A012802
:104F700035D1DFF88010DFF88060DFF88020DFF8BF
:104F8000803061632068B0420CBF1846104601684B
:104F90000D4005602568B5420CBF181D101D02218B
:104FA00001602768B7420CBF18461046D0F800C011
:104FB0006068E168B0F5007F16BF00284FF4807587
:104FC0000025A0680543A0690D43054345F400652D
:104FD000B742ADB208BF1A4645EA0C05156000217C
:104FE0006164012084F841000020BDE8F2830000E4
:104FF00040F0FFFFD5670008003800401C4000402B
:105000001C3400403EB5044620688168009194F845
:105010004120042A37D10099CA074FF69F7516D54B
:1050200041684A0613D5E16A8A1CE262C0680880BA
:10503000618E4A1E6286608E48B9206841682940A8
:105040004160012284F84120204601F022F80098B6
:10505000410618D5206841688A0614D541680D407C
:105060004560002001902168CA6801928968019119
:105070000121019884F84110606C40F002006064E6
:10508000204601F005F894F84100032838D1009833
:1050900081074FF65F7517D5206841680A0613D55A
:1050A000616A8A1C62620988C160608D411E6185E7
:1050B000608D48B92068416829404160012084F82A
:1050C0004100204600F0E6FF0098010718D520684F
:1050D00041688A0614D541680D4045600020009063
:1050E0002168886800900120009984F841002046DA
:1050F000616C41F004016164BDE83E4000F0C8BF4E
:1051000037BD000038B5040001D1012032BD0020B8
:10511000A06204F15005687820B90021297020466A
:1051200000F080FF0220687000F027F86268A16834
:10513000E06823680A432169024360690A43A16960
:10514000024301F40071E0690A43216A0243A06A44
:105150000A4302431A60A169606A2268090C01F0DF
:105160000401014351602068C16921F40061C161FB
:10517000002068600121697032BD2068016821F05B
:1051800040010160704700002DE9F843040017D08A
:105190002078B74EC10745D5B06800F00C00042850
:1051A00007D0B06800F00C0008280BD170684102ED
:1051B00008D53068810335D56068002840F0BA8092
:1051C000012053E16068B0F5803F04D1306840F4BD
:1051D0008030306011E0B0F5A02F306806D140F487
:1051E00080203060316841F4803105E020F4803067
:1051F0003060316821F480213160606868B100F06E
:1052000013FB05463068810300F1948000F00CFB2D
:10521000401B6528F6D3032028E100F005FB054676
:105220003068810340F1868000F0FEFA401B65285B
:10523000F6D3F0E700F0F8FA401B022840F2A7800E
:10524000E9E7E06870B10121396000F0EDFA054648
:105250003068810700F1CB8000F0E6FA401B02289D
:10526000F6D9D8E7386000F0DFFA054631688807DC
:1052700063D500F0D9FA401B0228F7D9CBE70860C4
:1052800000F0D2FA0546706F810775D500F0CCFAB0
:10529000401B0228F7D9BEE70528306F06D140F041
:1052A00004003067306F40F0010005E04008400026
:1052B0003067306F20F00400306741F28938A06811
:1052C00068B100F0B1FA8146306F810700F19C802F
:1052D00000F0AAFAA0EB09004045F5D39BE700F0E7
:1052E000A3FA8146306F810740F18E8000F09CFA6E
:1052F000A0EB09004045F5D38DE700F095FA401B7F
:10530000022840F2968086E700F08EFA001B022801
:1053100040F2A7807FE70020386600F085FA044657
:105320003068810140F1A18000F07EFA001B022864
:10533000F6D970E720784F4F81071BD5B06810F081
:105340000C0F09D0B06800F00C0008287FF479AF8A
:10535000706841023FF575AF3068810703D5E0689A
:1053600001287FF42DAF3168206921F0F80141EA6E
:10537000C0013160217808070DD560693E490028D9
:105380003FF47DAF01220A6000F04EFA0546706FCF
:1053900081077FF54FAF207841073AD5306C002563
:1053A000C1000AD400950125316C41F0805131646F
:1053B000306C00F0805000900098DFF8C080D8F882
:1053C0000000C1051BD4D8F8000040F48070C8F874
:1053D000000000F029FA8146D8F80000C1050ED47B
:1053E00000F022FAA0EB09000228F5D913E7306893
:1053F000216920F0F80040EAC1003060BAE7A068F7
:1054000001287FF449AF4DE71DB1306C20F080508A
:105410003064A06948B3B16801F00C0108293FF479
:10542000CFAE02287FF477AF0020386600F0FCF999
:105430000546306881013FF560AFE269206A616A24
:105440000243A06A400842EA8112401E42EA00423A
:10545000E06A42EA006272600121396600F0E4F914
:105460000446306881017FF54FAF0020BDE8F2832C
:105470000038024000004742800E47420070004062
:105480002DE9F04104000F4677D0544E306800F00B
:105490000F00B84202D200F072F86ED12068504D71
:1054A000810712D5400703D5A96841F4E051A960EE
:1054B0002078010703D5A86840F46040A860A96877
:1054C000A06821F0F0010143A9602178C8074CD5FC
:1054D0006068012802D129688A0305E0022818BF04
:1054E000032803D129688A0103D446E029688A0782
:1054F00043D5A968890840EA8100A86000F094F9C2
:105500008046A868616800F00C00B0EB810F2CD0D9
:1055100000F08AF9A0EB080041F289318842F0D30B
:10552000032020E02078410705D5AA68E06822F42E
:10553000E0520243AA602178080706D5A9682069CD
:1055400021F4604141EAC001A96000F053F8AA6863
:105550002449254BC2F30312895CC840186000201F
:1055600000F090FC0020BDE8F081306800F00F00F2
:105570008742D7D200F003F8D4D00120F3E7377088
:10558000316801F00F01B942704717480068704751
:105590001548164A006813681549C3F38222FFE7CD
:1055A000895CC840704710B50F2202600F4A13682B
:1055B00003F003034360146804F0F004846013688C
:1055C00003F4E053C3601268D20802F4E0520261AF
:1055D0000248026802F00F020A6010BD003C02405F
:1055E00000380240EC6F0008180000200838024024
:1055F000A871000830B5144C606800F00C00042855
:1056000002D0082802D01DE0104830BD2268206872
:105610000023410202F03F0204D525680B49C5F37F
:10562000881003E020680A49C0F38810A1FB00013C
:10563000FBF7D8FE2168C1F30141491C4900B0FBCA
:10564000F1F030BD024830BD0438024000127A004B
:105650000024F400F8B50446524D207810F0050FF0
:105660003AD0514E0020306000F0DEF8074629683D
:10567000080126D500F0D8F8C01B0228F7D903206E
:10568000F2BD00F0D1F8801B022822D9F7E700F024
:10569000CBF8801B022835D9F1E700F0C5F8801B54
:1056A00041F28931884248D3E9E7A86820F4F8102C
:1056B000A860286FE168C1F30B0108432867002048
:1056C000F2BDA168606800F066F8326000F0ACF8E6
:1056D000064628680101D4D520788107EFD500203F
:1056E0000090296C314F41F080512964286C00F002
:1056F000805000900098396841F48071396000F062
:1057000093F806463868C105C1D5286F10F440707B
:105710001EBFE16801F44071884211D0286F24490E
:1057200001220A6000230B6020F440702867286F74
:10573000C10705D500F078F80646286F8107ACD57B
:10574000E16801F44070B0F5407FAED1AA68194815
:1057500022F4F81201401143A960AAE70146002093
:10576000012917D114494A68120213D4086809683C
:1057700042024CBF1148124801F03F01114AB0FBF0
:10578000F1F11068C0F3881041431068C0F3027053
:10579000B1FBF0F07047090741EA80110948016048
:1057A0000122704700380240680047420070004004
:1057B000400E4742FFFCFF0F0438024000127A00FF
:1057C0000024F4008438024010B5104C0FF21D0183
:1057D00001222046FEF754FB0D492046FEF7A2FBAE
:1057E0002046BDE81040FEF7DABB00000229094858
:1057F00005D0042906D0052906D1032103E00222A1
:10580000027070470121017070470000D43D0020F4
:105810001C000020CC4700200248416802788A180A
:10582000426070470C00002001484068704700BF8C
:105830000C00002038B504000D4602D100F039FA02
:10584000FEE7FDF709F9E26B206C216842438818F6
:1058500060600021A1632068E26BA060521E206C92
:10586000216842438818E0604FF0FF3104F14400A2
:105870000170417075B92069A0B104F11000FCF706
:10588000B4FD78B1DFF844154FF08050086000F0A7
:105890000BFA07E004F11000FDF72CF804F12400E6
:1058A000FDF728F8FDF7F1F8012032BDF8B5060044
:1058B0000D46174602D100F0FCF9FEE7002D0EBFA1
:1058C000482005FB06F04830FCF73AFF040007D0FB
:1058D00000943B4604F148022946304600F002F8A5
:1058E0002046F2BD82B0029B01B91A461A60D86305
:1058F00019641846012102B09CE72DE9F64782B0F1
:1059000004461E46502714B900F0CCF9FEE75FEAC2
:10591000010A01D1206C70B9022E02D1E06B01287E
:105920000CD1FCF71AFE002865D10398002862D03C
:1059300000F0B8F9FEE700F0B5F9FEE700F0B2F9C3
:10594000FEE7039907F11000FCF730FD384600F040
:1059500000FAFCF752FC18B9C8F8009000F0A4F95E
:10596000FDF77AF8B86BF96B88424BD3022E49D019
:10597000039800283CD01CB96846FCF765FD01245B
:10598000FDF783F8FCF733FCFDF766F807F14400F8
:1059900090F9001011F1010F04BF0022027090F97C
:1059A000011011F1010F04BF00224270FDF76DF8E4
:1059B00003A96846FCF758FD98BBFDF74DF8B86B96
:1059C000F96B884214BF00250125FDF75EF8002D14
:1059D000B7D1384600F0BDF9FCF70FFCC0E718B1AD
:1059E000C8F8009000F060F9FDF74FF801201EE0C4
:1059F000FDF74BF81AE027460024DFF8D0834FF07C
:105A00008059ADE732465146384600F05AF9796A76
:105A10000029E4D007F12400FCF7E7FC0028DFD1DF
:105A2000E2E7384600F095F9FCF7E7FB0020F5E0E7
:105A30002DE9F8430446884615461E46502714B9FA
:105A400000F030F9FEE7B8F1000F01D1206C20BB67
:105A5000022E02D1E06B012822D1FDF73DF8EFF3D1
:105A6000118900F02AF801D3022E21D194F9457052
:105A700032464146204600F024F917F1010F12D1B9
:105A8000606A98B104F12400FCF7AFFC002818BF4D
:105A9000002D0BD00120286008E000F003F9FEE79C
:105AA00000F000F9FEE77F1C84F84570012000E05B
:105AB000002089F31188BDE8F28387F31188BFF3D2
:105AC0004F8FBFF36F8FA06BE16B884270472DE95A
:105AD000F64782B0064699460024502526B985F33C
